:020000040800F2
:10000000480B0020210200087B140008B5120008EC
:10001000791400087B040008A91A000800000000F9
:100020000000000000000000000000007F14000835
:100030007D040008000000007D1400088114000801
:100040003B0200083B0200083B0200083B0200089C
:100050003B0200083B0200083B0200083B0200088C
:100060003B0200083B0200083B0200083B0200087C
:100070003B0200083B0200083B0200083B0200086C
:100080003B0200083B0200083B0200083B0200085C
:100090003B0200083B0200083B0200083B0200084C
:1000A0003B0200083B0200083B0200083B0200083C
:1000B0003B0200083B0200083B0200083B0200082C
:1000C0003B0200083B0200083B0200083B0200081C
:1000D0003B0200083B0200083B0200083B0200080C
:1000E0003B0200083B0200083B0200083B020008FC
:1000F0003B0200083B0200083B0200083B020008EC
:100100003B0200083B0200083B0200083B020008DB
:100110003B0200083B0200083B0200083B020008CB
:100120003B0200083B0200083B0200083B020008BB
:100130003B0200083B0200083B0200083B020008AB
:100140003B0200083B0200083B0200083B0200089B
:100150003B0200083B0200083B0200083B0200088B
:100160003B0200083B0200083B0200083B0200087B
:100170003B0200083B0200083B02000800000000B0
:100180003B02000800F002F800F03AF80AA090E8FC
:10019000000C82448344AAF10107DA4501D100F042
:1001A0002FF8AFF2090EBAE80F0013F0010F18BFD5
:1001B000FB1A43F0010318472C1A00004C1A0000E8
:1001C000103A24BF78C878C1FAD8520724BF30C883
:1001D00030C144BF04680C60704700000023002455
:1001E00000250026103A28BF78C1FBD8520728BF47
:1001F00030C148BF0B6070471FB51FBD10B510BDA3
:1002000000F001F91146FFF7F7FF01F05FFC00F085
:100210001FF903B4FFF7F2FF03BC00F027F9000059
:100220000948804709480047FEE7FEE7FEE7FEE78A
:10023000FEE7FEE7FEE7FEE7FEE7FEE704480549C6
:10024000054A064B70470000E914000885010008C4
:1002500048050020480B00204807002048070020E0
:1002600053EA020C00F069802DE9F04B4FF00006D4
:10027000002B1FBFB3FA83F503FA05F424FA05F641
:100280005E4012BF1643B2FA82F502FA05F4C5F1D8
:1002900020051EBF22FA05FC44EA0C04203556EA6C
:1002A000044C4FEA144418BF641C4FF000084FF090
:1002B0000009904271EB030C39D3002919BFB1FA40
:1002C00081F701FA07F6B0FA80F700FA07F6C7F1EE
:1002D00020071EBF20FA07FC46EA0C062037B6FBB3
:1002E000F4FCA7EB0507103F07F01F0BCBF120062E
:1002F0000CFA0BFB2CFA06F644BFB3460026202F5F
:10030000A4BF5E464FF0000B5BEA060C08BF4FF03F
:10031000010B19EB0B09ABFB027C48EB0608C01B79
:1003200006FB02CC0BFB03CC71EB0C01C1E70B46C7
:10033000024641464846BDE8F08B13B54FF0000039
:100340004FF00001AFF30080BDE81C40704710B5CE
:10035000203AC0F00B80B1E81850203AA0E81850BD
:10036000B1E81850A0E81850BFF4F5AF5FEA027C7E
:1003700024BFB1E81850A0E8185044BF18C918C0ED
:10038000BDE810405FEA827C24BF51F8043B40F88E
:10039000043B08BF7047D20728BF31F8023B48BF73
:1003A00011F8012B28BF20F8023B48BF00F8012BB1
:1003B00070474FF0000200B5134694469646203928
:1003C00022BFA0E80C50A0E80C50B1F12001BFF40E
:1003D000F7AF090728BFA0E80C5048BF0CC05DF874
:1003E00004EB890028BF40F8042B08BF704748BFC2
:1003F00020F8022B11F0804F18BF00F8012B704736
:10040000704770477047754600F02CF8AE460500FF
:100410006946534620F00700854618B020B5FFF71F
:100420000DFFBDE820404FF000064FF000074FF0F1
:1004300000084FF0000B21F00701AC46ACE8C00902
:10044000ACE8C009ACE8C009ACE8C0098D4670470B
:1004500010B50446AFF300802046BDE81040FFF71A
:10046000D8BE000000487047E80400200149182069
:10047000ABBEFEE7260002007047FEE770470000B3
:1004800031B500F059F9009C0546601C02D00448C3
:100490000078044400F050F9401BA042FAD338BD64
:1004A000040000202DE9F04FDFF85092002309F1FD
:1004B000040A012603250AF1040B85B00F270BF16E
:1004C000040E12E1224606FA03F422407ED091F88F
:1004D00004C00CF0030CBCF1010F02D0BCF1020F00
:1004E00026D1D0F80880CDF800804FEA430805FAFD
:1004F00008FCCDF81080DDF8008028EA0C08CDF863
:100500000080D1F80CC0DDF810800CFA08FCDDF892
:1005100000804CEA080CC0F808C0D0F804C02CEAEF
:10052000040C0C79C4F300149C4044EA0C044460AD
:100530000C79E443A40712D0C4684FEA430CCDF809
:1005400008C005FA0CFC24EA0C04D1F80880DDF898
:1005500008C008FA0CF848EA0408C0F80C800C79C6
:1005600004F00304022C16D1DC0800EB840CCDF857
:1005700008C0DCF820C05C074FEAD46807FA08F42A
:100580002CEA040C0C6904FA08F444EA0C04DDF8C3
:1005900008C0CCF8204004684FEA430805FA08FC7C
:1005A00024EA0C0491F804C00CF0030C0CFA08FCCB
:1005B0004CEA040CC0F800C04C6814F4403F05D06D
:1005C0004F4CD4F800C04CF4804C00E08CE0C4F8F0
:1005D00000C0246823F0030C04F480440094494CC8
:1005E00064440294D4F808484FEA837C4FEA1C78AC
:1005F00007FA08FC24EA0C04DFF80CC1604502D1BC
:100600004FF0000C39E0DFF804C1604502D14FF033
:10061000010C32E0DFF8F8C0604502D14FF0020C67
:100620002BE0DFF8F0C0604502D14FF0030C24E06E
:10063000DFF8E4C0604502D14FF0040C1DE0DFF8A4
:10064000DCC0604502D14FF0050C16E0DFF8D0C0E9
:10065000604502D14FF0060C0FE0DFF8C8C06045DE
:1006600002D14FF0070C08E0DFF8BCC0604502D1B2
:100670004FF0080C01E04FF0090C0CFA08FC4CEAB2
:10068000040C029CC4F808C8D9F80040CC46D1F844
:10069000048094435FEAC83800D51443CCF8004086
:1006A000DAF80040D446D1F8048094435FEA8838F1
:1006B00000D51443CCF80040DBF80040DC46D1F80C
:1006C000048094435FEAC82800D51443CCF8004066
:1006D000DEF80040F446D1F8048094435FEA8828AD
:1006E00000D51443CCF800405B1C0A681446DA407D
:1006F0007FF4E8AE05B0BDE8F08F0000003C01409B
:100700004438024000300140000002400004024032
:1007100000080240000C0240001002400014024099
:1007200000180240001C0240002002400AB1816112
:1007300070470904FBE7000001488068704700002B
:1007400004000020024881680278114481607047EB
:10075000040000200B4810B5016841F400710160ED
:10076000016841F480610160016841F480710160B9
:10077000032000F061F8002000F006F800F024F8F3
:10078000002010BD003C024070B50D4D04464FF4F2
:100790007A712878B1FBF0F00A490968B1FBF0F0F2
:1007A00000F0AAFB48B9102C07D200222146501EA7
:1007B00000F022F800206C6070BD012070BD0000C8
:1007C00004000020100000200A4808B5016841F428
:1007D00080410160006800F4804000900548001FDF
:1007E000016841F080510160006800F08050009085
:1007F00008BD000044380240F0B40E4B1B680C46A4
:10080000C3F30223C3F10705042D00D90425191DE4
:10081000072901D2002300E0DB1E012606FA05F1BC
:10082000491E214099409E40761E16403143F0BC3F
:1008300001F03BB90CED00E0064900F00702086842
:100840004FF6FF03184040EA0220034A10430860B5
:10085000704700000CED00E00000FA052DE9F041C2
:100860008AB0040005D094F8BD032668002520B1A5
:1008700008E001200AB0BDE8F08184F8BC532046AE
:1008800000F05EF8032084F8BD03F06BC00500D4CF
:100890002561206801F0B2F804F110012822884691
:1008A0006846FFF754FD94E80F0000F08DFF022624
:1008B000C8BB0021206801F0C9F8002001270EE024
:1008C000C0EBC00104EB810181F83D7001F83C0FE1
:1008D000C880CD708D60CD60401CC0B24D61616834
:1008E0008142EDD8002011E0C0EBC00104EB810192
:1008F00081F8FD5181F8FC0181F8FF51C1F80452E3
:10090000C1F80852401CC0B2C1F81052616881425F
:10091000EAD8282241466846FFF719FD94E80F00FF
:1009200000F0B2FF10B184F8BD63A2E784F838503C
:1009300084F8BD73206800F099FF00209AE700005A
:1009400030B587B0044614216846FFF732FD2068B1
:10095000B0F1A04F30D119480024016841F00101E5
:1009600001600068164D00F0010005904FF4E8505A
:1009700000900220CDE90104032003900A20049096
:1009800069462846FFF78EFD6815CDE900046946E3
:1009900028460294FFF786FD0848001D016841F0D3
:1009A0008001016005481430016841F48041016014
:1009B000006800F48040059007B030BD3038024038
:1009C000000002402DE9F0470E46050063D0DFF835
:1009D0001C81D8F80000F7B200F00F00B04207D237
:1009E00088F80070D8F8000000F00F00B04252D133
:1009F00028683F4C810712D5400703D5206840F492
:100A0000E05020602878000703D5206840F460405B
:100A100020602068A96820F0F00008432060287852
:100A2000C0072BD0324968680839012810D00968FE
:100A3000022810D0890700292DDA216821F003014E
:100A400001432160FFF778FE814641F2883A0EE0CB
:100A500009688903EFE78901EDE700BFFFF76CFE46
:100A6000A0EB0901514502D90320BDE8F0872068B9
:100A7000696800F00C00B0EB810FEFD1D8F80010DE
:100A8000404601F00F01B14207D90770006800F03D
:100A90000F00B04201D00120E7E72878400705D5D4
:100AA0002068E96820F4E0500843206028780007B7
:100AB00006D52068296920F4604040EAC100206022
:100AC00000F04EF82168F02292FAA2F201F0F00153
:100AD000B2FA82F2D140074A515CC8400649086028
:100AE00006480068FFF750FE0020BEE7003C0240C9
:100AF00008380240CC1B000810000020080000202D
:100B000008480949006809684FF4E05292FAA2F2D5
:100B100001F4E051B2FA82F2D140044A515CC8407B
:100B2000704700001000002008380240DC1B00085D
:100B300008480949006809684FF4604292FAA2F235
:100B400001F46041B2FA82F2D140044A515CC840DB
:100B5000704700001000002008380240DC1B00082D
:100B6000154810B5006810F00C02144813D041105D
:100B7000042A0FD0082A0ED10F4C241F22682368A4
:100B800002F03F025B0207D52068C0F38810A0FB8B
:100B9000010106E0084610BD2168C1F38811A1FBE0
:100BA00000010023FFF75CFB2168C1F30141491CF0
:100BB0004900B0FBF1F010BD083802400024F400F9
:100BC0002DE9F84F04007BD0DFF814B32078ABF1A7
:100BD0000406C007A6F1040536D0DBF8001058461D
:100BE000C1F38101012907D00068C0F38100022808
:100BF00009D13068400206D52868800324D5606892
:100C00000028E0D020E0B6492079891F087060688C
:100C100068B1FFF791FD074605E000BFFFF78CFDC7
:100C2000C01B642876D828688003F7D50CE0FFF74E
:100C300083FD074605E000BFFFF77EFDC01B64286B
:100C4000F0D828688003F7D42078DFF898828007EE
:100C50004FF0000944D5DBF80010584611F00C0F96
:100C60004FF0F80A07D00068C0F38100022809D1CC
:100C70003068400206D42868800715D5E06801284E
:100C80001ED111E0E068E0B10120C8F80000FFF7D4
:100C900053FD074605E000BFFFF74EFDC01B0228CD
:100CA000C0D828688007F7D528689AFAAAF221697F
:100CB000B2FA82F220F0F8009140084328600FE079
:100CC0000AE1C8F80090FFF737FD074605E000BFCE
:100CD000FFF732FDC01B02281CD828688007F7D414
:100CE0002078000727D5DFF8F8A17F4861690AF16D
:100CF0006C0A81B101210160FFF71EFD074604E087
:100D0000FFF71AFDC01B022804D8DAF8000080079C
:100D1000F6D510E082E0C0F80090FFF70DFD074621
:100D200005E000BFFFF708FDC01B022876D8DAF8FF
:100D300000008007F6D4207840075FD5DFF8A0A137
:100D400000270AF1380ADAF80000C0000BD4DAF8FC
:100D5000001041F08051CAF80010DAF800000127B5
:100D600000F0805000906148016841F4807101609A
:100D70000168C90512D4016841F480710160FFF770
:100D8000DBFC009006E000BFFFF7D6FC0099401A9C
:100D900002287ED855480068C005F5D55049207A0C
:100DA00068310870A06888B1FFF7C6FC009007E0C2
:100DB000FFF7C2FC0099411A41F28830814268D89D
:100DC0004748683000688007F2D510E0FFF7B4FCB0
:100DD000009007E0FFF7B0FC0099411A41F288301B
:100DE000814256D83E48683000688007F2D42FB15F
:100DF000DAF8001021F08051CAF80010A069B8B3E9
:100E0000DBF80010C1F38101022949D00228C8F89B
:100E1000609004D0FFF790FC04463DE039E0FFF716
:100E20008BFC074605E000BFFFF786FCC01B64286B
:100E30002FD828688001F7D4D4E907010843616AF4
:100E400094F82C20890141EA02610843A16A284AEA
:100E5000490802EB014108433168264A1140084322
:100E600030600120C8F86000FFF766FC044606E029
:100E700034E000BFFFF760FC001B642809D8286835
:100E80008001F7D52AE000BFFFF756FC001B64285D
:100E900002D90320BDE8F88F28688001F4D41DE052
:100EA0000128F7D03068E26900F48001914213D143
:100EB000226A00F03F0191420ED1616AC0F38812AC
:100EC000914209D1A26A00F44031914204D1E16A11
:100ED00000F07060884201D00120DBE70020D9E7F4
:100EE0000838024000004742800E47420070004030
:100EF0000000FFFF0080BCF010B5401EB0F1807F05
:100F000001D3012010BD4FF0E02460610F21601774
:100F100000F0CBFD0020A06107202061002010BD63
:100F200070B590F83C20012A32D0012480F83C4072
:100F3000022280F83D2003685A689D6822F07006FE
:100F40000A6832435A60134B02689A4214D0B2F1D5
:100F5000804F11D0104B9A420ED0104B9A420BD0BA
:100F60000F4B9A4208D00F4B9A4205D00E4B9A4233
:100F700002D00E4B9A4204D1496825F080031943F0
:100F8000916080F83D40002180F83C10084670BD1B
:100F9000022070BD00000140000400400008004035
:100FA000000C0040000401400040014000180040D7
:100FB00010B5040003D094F83D0010B107E0012003
:100FC00010BD002084F83C00204600F01FF80220ED
:100FD00084F83D00211D206800F088FA012084F883
:100FE000460084F83E0084F83F0084F8400084F80E
:100FF000410084F8420084F8430084F8440084F8F7
:10100000450084F83D00002010BD000008B50068D0
:101010000949884201D1094804E0B0F1804F09D163
:101020000648001F016841F001010160006800F0FE
:101030000100009008BD000000000140443802405B
:1010400090F83D10012901D001207047022180F85D
:101050003D1000681149884214D0B0F1804F11D082
:101060000F4988420ED00F4988420BD00E49884262
:1010700008D00E49884205D00D49884202D00D495A
:10108000884204D1816801F00701062903D0016874
:1010900041F00101016000207047000000000140A4
:1010A0000004004000080040000C00400004014023
:1010B000004001400018004070B5044690F83C0024
:1010C000012817D0012584F83C50022084F83D0007
:1010D0002068826822F0770222F47F4282600868EA
:1010E000502830D00DDC20284DD005DC98B31028D6
:1010F0003BD148E0022070BD302844D0402834D194
:1011000039E0602828D0702806D0B0F5805F2CD058
:10111000B0F5005F29D10AE0CB68D1E90121206850
:1011200000F048FA2068816841F0770109E0CB6857
:10113000D1E90121206800F03DFA2068816841F47E
:101140008041816011E0CA684968206800F087FA30
:101150005021206807E016E0CA684968206800F05E
:101160008FFA6021206800F02FFA84F83D500020AB
:1011700084F83C0070BDCA684968206800F06FFAC6
:1011800040212068EFE7226801461046EBE770B582
:10119000044690F83C00012812D0012584F83C5008
:1011A000022084F83D00204600F016FA01004FF0BE
:1011B000000007D084F83D5084F83C00012070BD49
:1011C000022070BD2168CA6822F04002CA6021680E
:1011D000CA6822F48042CA6084F83D5084F83C001A
:1011E000002070BD70B5040004D094F83D000025C7
:1011F00010B106E0012070BD84F83C50204600F09C
:1012000023F8242084F83D002068C16821F40051AF
:10121000C160204600F046FA2068016921F490413F
:1012200001612068416921F02A0141612068C1689B
:1012300041F40051C1602564202084F83D0084F809
:101240003E00002070BD000010B586B00446142199
:101250006846FFF7AEF814492068884221D1134848
:101260000021026842F480220260006800F48020BD
:1012700005900E481038026842F0080202600068CB
:1012800000F0080005904FF4407000900220CDE976
:101290000101032003900720049069460448FFF7EA
:1012A00001F906B010BD000000480040403802407F
:1012B000000C0240FEE70000F0B587B0142168463C
:1012C000FFF777F833480024016841F0040101601A
:1012D000016801F004010591016841F0800101609D
:1012E000016801F080010591016841F00101016090
:1012F000016801F001010591016841F002010160FE
:10130000016801F002010591016841F008010160E6
:10131000016801F008010591016841F04001016098
:1013200000681D4E00F0400044F281050590002247
:1013300029463046FFF7FAF9184F00224021384677
:10134000FFF7F4F94FF4005000904FF48810CDE906
:10135000010469461248FFF7A5F800950125CDE97B
:101360000154694630460394FFF79CF840200090F2
:10137000CDE90154694638460394FFF793F880207D
:10138000CDE90004694638460294FFF78BF807B0B0
:10139000F0BD000030380240000402400018024056
:1013A0000008024000B587B0002119480091019162
:1013B000029103910491154A0591026043F67F6200
:1013C000C0E901214FF47A72C0E9032141618161D2
:1013D000FFF7EEFD08B172B6FEE74FF480500090C3
:1013E00069460B48FFF768FE08B172B6FEE7202099
:1013F00004908020059004A90548FFF791FD00287E
:1014000001D072B6FEE707B000BD00000000014049
:101410001400002010B588B014216846FEF7C9FFFB
:101420000024144805944FF080410694C0E900144C
:1014300040F2E731C0E9024104618461FFF7B8FD81
:1014400008B172B6FEE70720CDE9000469460948F5
:10145000FFF79DFE08B172B6FEE7059405A90548A1
:101460000694FFF75DFD002801D072B6FEE708B0D4
:1014700010BD00005C000020FEE7FEE770477047EB
:10148000FFF760B910B592B030216846FEF791FFC2
:1014900014210CA8FEF78DFF0120039010200224D8
:1014A00004900020CDE906400820C021CDE90801C4
:1014B00000940621CDE90A106846FFF781FB08B1C8
:1014C00072B6FEE70F20CDE90C0480200E9040019B
:1014D0000F90109001210CA8FFF774FA002801D09A
:1014E00072B6FEE712B010BD70470000F0B502689A
:1014F000254C264D264E274F274B4FF0804CA042BF
:1015000009D0604507D0A84205D0B04203D0B84208
:1015100001D0984204D122F0700E4A6842EA0E02CD
:10152000A0421BD0604519D0A84217D0B04215D0B8
:10153000B84213D0984211D0184DA8420ED0184D81
:10154000A8420BD0174DA84208D0174DA84205D08D
:10155000164DA84202D0164DA84203D122F4407580
:10156000CA682A434D6922F080022A4302608A68D1
:10157000C2620A688262A04201D0984201D1096920
:10158000016301214161F0BD000001400004004001
:1015900000080040000C00400004014000400140F1
:1015A000004401400048014000180040001C004079
:1015B0000020004010B5846842EA032224F47F44EE
:1015C0000A432243826010BD826822F070020A43FF
:1015D00042F007018160704710B503689A6822F0F5
:1015E00070044A68224322F007040A6822439A6082
:1015F0004A6812F00F0F30D11211082A2DD2DFE8FD
:1016000002F02C2C2C2C0B2127040B69D1E9022190
:101610000068FFF7CFFF20E00A68052A10D00268B3
:10162000136A146A24F00104146202689469096957
:1016300024F0F00444EA01119161006803620CE0B7
:10164000012010BD0A698968006800F008F804E00C
:101650000A698968006800F013F8002010BD10B511
:10166000036A046A24F001040462846924F0F0042B
:1016700044EA021423F00A020A438461026210BDA4
:1016800010B5036A23F0100303628369046A23F42C
:10169000704343EA023224F0A00343EA011182615D
:1016A000016210BD2DE9F041044600680169E2685D
:1016B00021F44051114301612169A068E2690843A6
:1016C0006169114322680843D16849F20C63994368
:1016D0000143D16020684169A26921F4407111433E
:1016E000416137492068884202D03649884202D198
:1016F000FFF71EFA01E0FFF703FA0246E3696420F0
:101700003221B3F5004F02EBC20303EB0213626810
:101710002BD09200B3FBF2F5B5FBF0F5B3FBF2F67C
:101720006FF018077D4306EB8505B3FBF2F601EB7E
:101730000515B5FBF0F5B6FBF0F605F0F00505EB89
:101740000615B3FBF2F6B3FBF2F2B2FBF0F27A430A
:1017500006EB820201EB0211B1FBF0F000F00F008A
:10176000216828448860BDE8F0815200B3FBF2F69E
:10177000B6FBF0F6B3FBF2F7B3FBF2F56FF0180C23
:1017800006FB0CF607EB860601EBC606B5FBF0F58B
:10179000B6FBF0F62D0106F0F80605EB4605B3FBA7
:1017A000F2F6B3FBF2F2B2FBF0F202FB0CF206EB44
:1017B000820201EBC201B1FBF0F000F00700CFE7BD
:1017C000001001400014014070B504460699049DC4
:1017D0000D98012915D0E06840F04000E0602046F7
:1017E00000F028F8A16B41F48031A163012D07D1ED
:1017F000A16841F00601A160A16841F02001A1604B
:1018000070BDA16B21F48031A163E168084A1140E9
:10181000E160E16821F44011E160012803D1E06852
:1018200040F48010E060204600F004F8DEE700009D
:10183000BFFFBDFF01220C4902E0521C8A420BD8B7
:101840000369002BF9DA026942F001020261012208
:1018500004E0521C8A4201D9032070470369DB0768
:10186000F7D1002070470000400D0300D0F8001EA3
:1018700021F00301C0F8001ED0F8041841F0020165
:10188000C0F80418002070472DE9F04F00250E46DF
:101890000446DDF82CC0DDF824B0109F2846294608
:1018A00004EB8002C2F80411401C0F28F8D3204634
:1018B000C7B1806B20F40012A263A06B40F4002239
:1018C000A26308468846C4F8000ED4F800182046E3
:1018D000C4F80018BCF1010F16D0D0F8001841F080
:1018E000030116E0D0F8040840F00202C4F804280E
:1018F000A06B40F40012A263A06B20F40022A2634C
:10190000A06B20F48022DBE7D0F800180BB141F087
:101910000101C0F80018102100F086F800B101257F
:10192000204600F071F800B101254046C4F8108847
:10193000C4F81488C4F81C8800214FF000694FF0E7
:10194000904A4FF67F3314E004EB4112D2F800C9FD
:10195000BCF1000F06DA11B1C2F800A904E0C4F826
:10196000009901E0C2F80009C2F81009C2F808396C
:10197000491C8E42E8D8002115E000BF04EB41125B
:10198000D2F800CBBCF1000F06DA11B1C2F800ABFF
:1019900004E0C4F8009B01E0C2F8000BC2F8100B91
:1019A000C2F8083B491C8E42E8D8D4F8101821F43C
:1019B0008072C4F81028A0616FF080406061BBF1B4
:1019C000000F03D1A06940F01000A061A06909498F
:1019D0000843A0610C9818B1A06940F00800A0610C
:1019E000012F03D1A06904490843A0612846BDE83E
:1019F000F08F000000383C8004000040816821F036
:101A00000101816000207047002110220261054A17
:101A1000491C914201D9032070470369DB06F7D4C2
:101A200000207047400D03000022202343EA81116B
:101A300001610549521C8A4201D90320704703699C
:101A40009B06F7D400207047400D030070B5044694
:101A5000C068002520F0C040E060012901D079B1C4
:101A600020E0E06840F00050E0600120FEF708FD53
:101A700060696D1C10F0010F10D1322DF5D30DE00F
:101A8000E06840F08040E0600120FEF7F9FC60690A
:101A90006D1C10F0010F01D0322DF5D3322D01D085
:101AA000002070BD012070BDFEE70907090E002867
:101AB00004DB00F1E02080F80014704700F00F0014
:101AC00000F1E02080F8141D70470000FEF742FE90
:101AD000FFF7D8FCFFF7F0FB3948384900240160D4
:101AE0004FF4E131C0E901140C21C460C0E90441A4
:101AF0008461C461FFF776FB08B172B6FEE7304837
:101B00004FF0A04144300160042141600221C0E94E
:101B1000031481610121C0E90714C0E90B14FEF729
:101B20009DFE08B172B6FEE7FFF73CFCFFF772FCC2
:101B300023489038FFF784FA21484838FFF780FAA5
:101B40001F4E204D903EDFF8808006F148074FF48D
:101B5000804903243068406A28803868406A80B22F
:101B6000B0FBF4F104FB11016880B1B1B0FBF4F1FA
:101B700004FB1101012918D0B0FBF4F104FB1100A2
:101B80000228E7D1012211464046FEF7CFFD002290
:101B900080214046FEF7CAFDDCE701224946404667
:101BA000FEF7C4FD00220121F3E701228021404617
:101BB000FEF7BCFD00224946EBE70000004800406C
:101BC000A4000020000000200004024000000000EB
:101BD00000000000010203040607080900000000DD
:101BE00001020304041C000800000020140000008F
:101BF000C0010008181C000814000020340B00006D
:101C0000DC010008000000000100000010000000DE
:081C1000000000000024F400B4
:040000050800018569
:00000001FF
