:020000040800F2
:10000000C8060020210200083B180008A9130008B8
:100010003918000817040008AF1800080000000095
:100020000000000000000000000000003F18000871
:1000300019040008000000003D18000841180008DD
:100040003B0200083B0200083B0200083B0200089C
:100050003B0200083B0200083B0200083B0200088C
:100060003B0200083B0200083B0200083B0200087C
:100070003B0200083B0200083B0200083B0200086C
:100080003B0200083B0200083B0200083B0200085C
:100090003B0200083B0200083B0200083B0200084C
:1000A0003B0200083B0200083B0200083B0200083C
:1000B0003B0200083B0200083B0200083B0200082C
:1000C0003B0200083B0200083B0200083B0200081C
:1000D0003B0200083B0200083B0200083B0200080C
:1000E0003B0200083B0200083B0200083B020008FC
:1000F0003B0200083B0200083B0200083B020008EC
:100100003B0200083B0200083B0200083B020008DB
:100110003B0200083B0200083B0200083B020008CB
:100120003B0200083B0200083B0200083B020008BB
:100130003B0200083B0200083B0200083B020008AB
:100140003B0200083B0200083B0200083B0200089B
:100150003B0200083B0200083B0200083B0200088B
:100160003B0200083B0200083B0200083B0200087B
:100170003B0200083B0200083B02000800000000B0
:100180003B02000800F002F800F03AF80AA090E8FC
:10019000000C82448344AAF10107DA4501D100F042
:1001A0002FF8AFF2090EBAE80F0013F0010F18BFD5
:1001B000FB1A43F001031847E81800000819000073
:1001C000103A24BF78C878C1FAD8520724BF30C883
:1001D00030C144BF04680C60704700000023002455
:1001E00000250026103A28BF78C1FBD8520728BF47
:1001F00030C148BF0B6070471FB51FBD10B510BDA3
:1002000000F0CFF81146FFF7F7FF01F099FB00F07F
:10021000EDF803B4FFF7F2FF03BC00F0F5F80000BF
:100220000948804709480047FEE7FEE7FEE7FEE78A
:10023000FEE7FEE7FEE7FEE7FEE7FEE704480549C6
:10024000054A064B70470000AD18000885010008FC
:10025000C8000020C8060020C8020020C8020020F4
:1002600053EA020C00F069802DE9F04B4FF00006D4
:10027000002B1FBFB3FA83F503FA05F424FA05F641
:100280005E4012BF1643B2FA82F502FA05F4C5F1D8
:1002900020051EBF22FA05FC44EA0C04203556EA6C
:1002A000044C4FEA144418BF641C4FF000084FF090
:1002B0000009904271EB030C39D3002919BFB1FA40
:1002C00081F701FA07F6B0FA80F700FA07F6C7F1EE
:1002D00020071EBF20FA07FC46EA0C062037B6FBB3
:1002E000F4FCA7EB0507103F07F01F0BCBF120062E
:1002F0000CFA0BFB2CFA06F644BFB3460026202F5F
:10030000A4BF5E464FF0000B5BEA060C08BF4FF03F
:10031000010B19EB0B09ABFB027C48EB0608C01B79
:1003200006FB02CC0BFB03CC71EB0C01C1E70B46C7
:10033000024641464846BDE8F08B13B54FF0000039
:100340004FF00001AFF30080BDE81C4070474FF054
:10035000000200B5134694469646203922BFA0E815
:100360000C50A0E80C50B1F12001BFF4F7AF090721
:1003700028BFA0E80C5048BF0CC05DF804EB890012
:1003800028BF40F8042B08BF704748BF20F8022B55
:1003900011F0804F18BF00F8012B7047704770476D
:1003A0007047754600F02CF8AE4605006946534686
:1003B00020F00700854618B020B5FFF73FFFBDE8E5
:1003C00020404FF000064FF000074FF000084FF0BC
:1003D000000B21F00701AC46ACE8C009ACE8C0094D
:1003E000ACE8C009ACE8C0098D46704710B50446BA
:1003F000AFF300802046BDE81040FFF70ABF0000C1
:10040000004870476800002001491820ABBEFEE795
:10041000260002007047FEE77047000031B500F08B
:1004200065F9009C0546601C02D00448007804442D
:1004300000F05CF9401BA042FAD338BD0400002054
:100440002DE9F04FDFF85092002309F1040A01264C
:1004500003250AF1040B85B00F270BF1040E12E1FE
:10046000224606FA03F422407ED091F804C00CF034
:10047000030CBCF1010F02D0BCF1020F26D1D0F861
:100480000880CDF800804FEA430805FA08FCCDF853
:100490001080DDF8008028EA0C08CDF80080D1F843
:1004A0000CC0DDF810800CFA08FCDDF800804CEA86
:1004B000080CC0F808C0D0F804C02CEA040C0C7971
:1004C000C4F300149C4044EA0C0444600C79E443F7
:1004D000A40712D0C4684FEA430CCDF808C005FA4F
:1004E0000CFC24EA0C04D1F80880DDF808C008FAF6
:1004F0000CF848EA0408C0F80C800C7904F00304F6
:10050000022C16D1DC0800EB840CCDF808C0DCF816
:1005100020C05C074FEAD46807FA08F42CEA040C00
:100520000C6904FA08F444EA0C04DDF808C0CCF8BD
:10053000204004684FEA430805FA08FC24EA0C044A
:1005400091F804C00CF0030C0CFA08FC4CEA040C03
:10055000C0F800C04C6814F4403F05D04F4CD4F8AC
:1005600000C04CF4804C00E08CE0C4F800C024686B
:1005700023F0030C04F480440094494C6444029436
:10058000D4F808484FEA837C4FEA1C7807FA08FC45
:1005900024EA0C04DFF80CC1604502D14FF0000CD6
:1005A00039E0DFF804C1604502D14FF0010C32E0C0
:1005B000DFF8F8C0604502D14FF0020C2BE0DFF805
:1005C000F0C0604502D14FF0030C24E0DFF8E4C036
:1005D000604502D14FF0040C1DE0DFF8DCC060453F
:1005E00002D14FF0050C16E0DFF8D0C0604502D113
:1005F0004FF0060C0FE0DFF8C8C0604502D14FF0A5
:10060000070C08E0DFF8BCC0604502D14FF0080CD1
:1006100001E04FF0090C0CFA08FC4CEA040C029CB7
:10062000C4F808C8D9F80040CC46D1F804809443F7
:100630005FEAC83800D51443CCF80040DAF800402F
:10064000D446D1F8048094435FEA883800D5144337
:10065000CCF80040DBF80040DC46D1F8048094433D
:100660005FEAC82800D51443CCF80040DEF800400B
:10067000F446D1F8048094435FEA882800D51443F7
:10068000CCF800405B1C0A681446DA407FF4E8AE00
:1006900005B0BDE8F08F0000003C01404438024046
:1006A0000030014000000240000402400008024007
:1006B000000C0240001002400014024000180240EA
:1006C000001C0240002002400069084000D00120C8
:1006D0007047426921EA02030A4043EA024181610C
:1006E00070470AB1816170470904FBE701488068DF
:1006F000704700000400002070B5040025D094F875
:100700003D00002520B984F83C50204600F0F4FA62
:10071000242084F83D002068016821F00101016077
:100720002068016841F4004101602068016821F4FB
:100730000041016000F040FC4D4A6168914201D8DF
:100740004C4900E04C49884201D2012070BD4B4920
:100750002368B0FBF1F15E6826F03F060E435E6051
:100760006368934206D94FF4967359434FF47A73F2
:10077000B1FBF3F12368491C1E6A26F03F063143A2
:1007800019626168914210D84900401EB0FBF1F235
:10079000521CC2F30B02042A01D2042022E0B0FB57
:1007A000F1F0401CC0F30B001CE0A268F2B301EBB7
:1007B000C10303EB0116431EB3FBF6F35B1C43F4CA
:1007C00080431B0549D092B301EBC10202EB01113A
:1007D000401EB0FBF1F0401CC0F30B0040F4804021
:1007E00040F400402168CA694CF6FF739A431043F5
:1007F000C861D4E9071001432068026822F0C002F2
:1008000011430160D4E9030101432068826848F282
:10081000FF339A4311438160D4E9050108432168FD
:10082000CA6822F0FF021043C86001E00EE016E043
:100830002068016841F0010101602564202084F8EE
:100840003D00256384F83E50002070BD01EB410659
:10085000431EB3FBF6F35B1CB3E70120C2E701EBD9
:100860004101401EB0FBF1F0401CC0F30B00B7E7A4
:10087000A086010080841E0000093D0040420F0058
:100880002DE9FF4F81B089460446FFF72FFF05464B
:1008900094F83D004FF0010820287DD11923012252
:1008A00050492046009500F081FE002874D194F84C
:1008B0003C00012870D0012084F83C0020680168C9
:1008C000C90703D1016841F0010101602068016896
:1008D00021F400610160242084F83D000026266494
:1008E0004148E0624FF0011B20272068016841F475
:1008F000807101600095002259462046049B00F05B
:1009000055FE50B120680068C00502D54FF4007054
:100910002064032005B0BDE8F08F216809F0FE00D7
:100920000861FFF7E3FE2168054648694969C0F39D
:100930004000C1F380214FF0A00A0FE0FFF7D6FE80
:10094000411B0498814200D808B984F83DA0216871
:1009500048694969C0F34000C1F3802194F83D2003
:10096000A02A02D008B90029E8D084F83D70206898
:100970004169C943890716D4016841F400710160D7
:100980002068416980691923012216492046009593
:1009900000F00CFEB8B900E021E084F83D7084F866
:1009A0003C600020B6E7016841F4007101602168F5
:1009B0006FF480604861192301220A49204600959E
:1009C00000F0F4FD08B10120A4E7039808F1010844
:1009D00080458AD384F83D7084F83C60F3E70220B8
:1009E00098E70000020010000000FFFF2DE9F84F1B
:1009F0001F4690468A460446DDF82890FFF776FEAB
:100A0000054694F83D00202875D1192301226C4930
:100A10002046009500F0CAFD0028F5D194F83C006E
:100A2000012868D0012084F83C0020680168C907CB
:100A300003D1016841F0010101602068016821F4DF
:100A400000610160222084F83D00102084F83E00FF
:100A500000262664C4F824806785608D2085594867
:100A6000E0622B464A465146204600F0B5FC00287D
:100A700078D1208D544F68B1012814D00228206805
:100A8000016816D041F48061016020684169806985
:100A9000009087E02068416981690091016841F414
:100AA000007101607EE02068016821F480610160CE
:100AB000F0E721F4806101602068016841F4006181
:100AC000E2E7032848D801280AD0022814D04B4670
:100AD000002239462046009500F068FDD8BB27E08B
:100AE0002A464946204600F0E0FDA0BB2068006988
:100AF000616A08704DE061E04B46002239462046AD
:100B0000009500F053FD30BB2068016841F400718E
:100B1000016020680069616A0870606A401C606258
:100B2000218D491E2185618D491E618521682EE038
:100B30002068016821F48061016020680069616AB1
:100B40000870606A401C6062208D401E2085608DA8
:100B5000401E6085D0E705E02A464946204600F061
:100B6000A4FD10B10120BDE8F88F20680069616A1A
:100B70000870606A401C6062218D491E2185618D6C
:100B8000491E618521684A69D24352070AD409691E
:100B90000170606A401C6062208D401E2085608D5F
:100BA000401E6085208D00288BD1202084F83D00D8
:100BB00084F83E6084F83C600020D4E70220D2E74D
:100BC000020010000000FFFF040001002DE9F84FB3
:100BD0001F4690468A460446DDF82890FFF786FDBA
:100BE000054694F83D0020287FD119230122404971
:100BF0002046009500F0DAFC002876D194F83C00FD
:100C0000012872D0012084F83C0020680168C907DF
:100C100003D1016841F0010101602068016821F4FD
:100C200000610160212084F83D00102084F83E001E
:100C300000262664C4F824806785608D20852D48B1
:100C4000E0622B464A465146204600F03BFC90B9F4
:100C5000206841698069009036E02A46494620466E
:100C600000F056FD50B1206C042804D120680168C2
:100C700041F4007101600120BDE8F88F606A2168CD
:100C800000780861606A401C6062618D491E618560
:100C9000218D491E89B2218522685369DB435B0798
:100CA0000BD451B100781061606A401C6062608DA5
:100CB000401E6085208D401E20852A4649462046DC
:100CC00000F04EFC0028CED1208D0028C5D154F86C
:100CD0003D0B016841F400710160202004F81E09F9
:100CE000E67766770020C7E7FFE70220C4E7000049
:100CF000020010000000FFFF10B586B0044614216A
:100D00006846FFF724FB14492068884221D1134824
:100D1000016841F0020101600068694600F00200CC
:100D200005904FF440700090122001900120029035
:100D300003200390042004900948FFF781FB074833
:100D40001030016841F400110160006800F40010E7
:100D5000059006B010BD000000540040303802403D
:100D600000040240024881680278114481607047A3
:100D7000040000200B4810B5016841F400710160C7
:100D8000016841F480610160016841F48071016093
:100D9000032000F061F8002000F006F800F024F8CD
:100DA000002010BD003C024070B50D4D04464FF4CC
:100DB0007A712878B1FBF0F00A490968B1FBF0F0CC
:100DC00000F0DEFA48B9102C07D200222146501E4E
:100DD00000F022F800206C6070BD012070BD0000A2
:100DE00004000020100000200A4808B5016841F402
:100DF00080410160006800F4804000900548001FB9
:100E0000016841F080510160006800F0805000905E
:100E100008BD000044380240F0B40E4B1B680C467D
:100E2000C3F30223C3F10705042D00D90425191DBE
:100E3000072901D2002300E0DB1E012606FA05F196
:100E4000491E214099409E40761E16403143F0BC19
:100E500000F02EBD0CED00E0064900F00702086826
:100E60004FF6FF03184040EA0220034A104308608F
:100E7000704700000CED00E00000FA052DE9F04796
:100E80000E46050063D0DFF81C81D8F80000F7B2E9
:100E900000F00F00B04207D288F80070D8F80000C8
:100EA00000F00F00B04252D128683F4C810712D5A4
:100EB000400703D5206840F4E05020602878000700
:100EC00003D5206840F4604020602068A96820F0C5
:100ED000F000084320602878C0072BD032496868AA
:100EE0000839012810D00968022810D08907002984
:100EF0002DDA216821F0030101432160FFF7F6FBA1
:100F0000814641F2883A0EE009688903EFE78901DA
:100F1000EDE700BFFFF7EAFBA0EB0901514502D95D
:100F20000320BDE8F0872068696800F00C00B0EB92
:100F3000810FEFD1D8F80010404601F00F01B14207
:100F400007D90770006800F00F00B04201D00120FF
:100F5000E7E72878400705D52068E96820F4E050E5
:100F6000084320602878000706D52068296920F406
:100F7000604040EAC100206000F036F82168F022AD
:100F800092FAA2F201F0F001B2FA82F2D140074ADD
:100F9000515CC8400649086006480068FFF704FF36
:100FA0000020BEE7003C024008380240881A0008D2
:100FB000100000200800002008480949006809685E
:100FC0004FF4E05292FAA2F201F4E051B2FA82F246
:100FD000D140044A515CC840704700001000002016
:100FE00008380240981A0008154810B5006810F03B
:100FF0000C02144813D04110042A0FD0082A0ED135
:101000000F4C241F2268236802F03F025B0207D5C1
:101010002068C0F38810A0FB010106E0084610BD5F
:101020002168C1F38811A1FB00010023FFF718F923
:101030002168C1F30141491C4900B0FBF1F010BD2A
:10104000083802400024F4002DE9F84F04007BD05A
:10105000DFF814B32078ABF10406C007A6F104054D
:1010600036D0DBF800105846C1F38101012907D0C2
:101070000068C0F38100022809D13068400206D51B
:101080002868800324D560680028E0D020E0B649B5
:101090002079891F0870606868B1FFF727FB074651
:1010A00005E000BFFFF722FBC01B642876D8286844
:1010B0008003F7D50CE0FFF719FB074605E000BFFA
:1010C000FFF714FBC01B6428F0D828688003F7D40E
:1010D0002078DFF8988280074FF0000944D5DBF8CC
:1010E0000010584611F00C0F4FF0F80A07D00068B6
:1010F000C0F38100022809D13068400206D4286874
:10110000800715D5E06801281ED111E0E068E0B144
:101110000120C8F80000FFF7E9FA074605E000BF24
:10112000FFF7E4FAC01B0228C0D828688007F7D56B
:1011300028689AFAAAF22169B2FA82F220F0F8003D
:101140009140084328600FE00AE1C8F80090FFF7DB
:10115000CDFA074605E000BFFFF7C8FAC01B02281A
:101160001CD828688007F7D42078000727D5DFF837
:10117000F8A17F4861690AF16C0A81B1012101601F
:10118000FFF7B4FA074604E0FFF7B0FAC01B0228E5
:1011900004D8DAF800008007F6D510E082E0C0F845
:1011A0000090FFF7A3FA074605E000BFFFF79EFA9D
:1011B000C01B022876D8DAF800008007F6D4207821
:1011C00040075FD5DFF8A0A100270AF1380ADAF856
:1011D0000000C0000BD4DAF8001041F08051CAF8CA
:1011E0000010DAF80000012700F0805000906148FC
:1011F000016841F4807101600168C90512D4016879
:1012000041F480710160FFF771FA009006E000BFC1
:10121000FFF76CFA0099401A02287ED855480068FA
:10122000C005F5D55049207A68310870A06888B1AA
:10123000FFF75CFA009007E0FFF758FA0099411AAF
:1012400041F28830814268D847486830006880079A
:10125000F2D510E0FFF74AFA009007E0FFF746FAF0
:101260000099411A41F28830814256D83E48683090
:1012700000688007F2D42FB1DAF8001021F0805115
:10128000CAF80010A069B8B3DBF80010C1F38101FF
:10129000022949D00228C8F8609004D0FFF726FA46
:1012A00004463DE039E0FFF721FA074605E000BFBC
:1012B000FFF71CFAC01B64282FD828688001F7D4D8
:1012C000D4E907010843616A94F82C20890141EAB6
:1012D00002610843A16A284A490802EB0141084318
:1012E0003168264A1140084330600120C8F8600088
:1012F000FFF7FCF9044606E034E000BFFFF7F6F91B
:10130000001B642809D828688001F7D52AE000BFAF
:10131000FFF7ECF9001B642802D90320BDE8F88F21
:1013200028688001F4D41DE00128F7D03068E26914
:1013300000F48001914213D1226A00F03F019142F2
:101340000ED1616AC0F38812914209D1A26A00F4F9
:101350004031914204D1E16A00F07060884201D0CE
:101360000120DBE70020D9E70838024000004742AF
:10137000800E4742007000400000FFFF0080BCF07C
:1013800010B5401EB0F1807F01D3012010BD4FF099
:10139000E02460610F21601700F08AFA0020A0614C
:1013A00007202061002010BDFEE701684A69D24392
:1013B00052050FD46FF480624A61002140F8301F5B
:1013C000202242738173026942F0040202610173B8
:1013D00001207047002070472DE9F84F0446C06A8D
:1013E0001E4693460D4621680A6842F480620A60F0
:1013F000082807D0012805D010F5803F02D0206BC7
:10140000112804D12068016841F4807101604FF017
:1014100001195B46002249462046009600F0C6F8B6
:101420004FF4007840B120680068C00501D5C4F8C9
:1014300040800320BDE8F88F2069DFF884A0B0F574
:10144000804F0FD00620216800EAD51747F0F00042
:10145000086133465A460AF10601204600F0DAF8E0
:1014600058BB03E0E8B240F001001CE02168E8B29C
:10147000086133465A465146204600F0CBF8E0B9A1
:101480002068416981690091016841F480710160BF
:101490005B46002249462046009600F087F8002867
:1014A000C1D147F0F1002168086133465A465146E0
:1014B000204600F0AFF80028BCD00120BAE70000B9
:1014C00002000100F8B50446C06A1E460D461746E4
:1014D000082807D0012805D010F5803F02D0206BE6
:1014E000122804D12068016841F48071016013461C
:1014F00000224FF001112046009600F057F840B14D
:1015000020680068C00502D54FF4007020640320F5
:10151000F8BD2069B0F5804F0ED00620216800EAA2
:10152000D51040F0F000086133463A460B4920469A
:1015300000F070F878B902E005F0FE0000E0E8B2D3
:1015400021680861054933463A46891F204600F064
:1015500061F80028DCD00120F8BD0000080001007F
:1015600070B516460D4604460DE02046FFF71DFFF8
:1015700008B1012070BD681C05D0FFF7B7F8801BCB
:10158000A84207D835B120684069C0434007ECD471
:10159000002070BD002044F8300F20216173A0733B
:1015A000216941F0200121612073E2E72DE9F04734
:1015B0001E4690460D460446C1F30747DDF82090CD
:1015C00008E0701C06D0FFF791F8A0EB0900B042CC
:1015D0000FD876B12068012F18D0806925EA000065
:1015E0000004000C14D000214145EAD00020BDE8E1
:1015F000F087002044F8300F20216173A073216927
:1016000041F02001216120730120F0E74069E5E706
:101610000121E9E72DE9F0479A4691460E46044636
:1016200000254FF02008C1F3074725E020684069F6
:10163000C043400514D42068016841F40071016082
:1016400021686FF480604861256384F83D8084F8E8
:101650003E50206C40F00400206484F83C501FE0B1
:10166000B9F1FF3F08D0FFF741F8A0EB0A01494567
:101670000CD8B9F1000F09D02068012F13D0806970
:1016800026EA00000004000C0BD0CFE744F8305FDE
:1016900084F80D80A573206940F020002061257337
:1016A0000120BDE8F0874069EAE72DE9F041002517
:1016B00090460E460446202717E04069C043C00606
:1016C0000CD454F8301B6FF01000486144F81059E6
:1016D0006777A577206A2062257717E0FFF706F87D
:1016E000A0EB0800B04208D83EB120684169C94368
:1016F0004906E2D40020BDE8F08144F8305F67730A
:10170000A573206940F02000206125730120F2E7D5
:1017100070B516460D4604460DE02046FFF745FE1F
:1017200008B1012070BD681C05D0FEF7DFFF801BEB
:10173000A84207D835B120684069C0430006ECD400
:10174000002070BD002044F8300F20216173A07389
:10175000216941F0200121612073E2E7F0B587B0F3
:1017600014216846FEF7F3FD2F480024016841F07C
:1017700004010160016801F004010591016841F074
:1017800080010160016801F080010591016841F06C
:1017900002010160016801F002010591016841F058
:1017A00040010160016801F040010591016841F0CC
:1017B0000101016000681D4E00F0010044F2810546
:1017C0000590002229463046FEF78BFF184F002275
:1017D00040213846FEF785FF4FF4005000904FF44B
:1017E0008810CDE9010469461248FEF729FE0095EC
:1017F0000125CDE90154694630460394FEF720FEE9
:1018000040200090CDE90154694638460394FEF724
:1018100017FE8020CDE90004694638460294FEF7A1
:101820000FFE07B0F0BD0000303802400004024057
:101830000018024000080240FEE7FEE770477047CC
:10184000FFF790BA30B591B030216846FEF77FFDC2
:1018500014210CA8FEF77BFD012003900224102028
:1018600004900094002506940D20CDE90750C32074
:10187000CDE9090405200B906846FFF7E5FB08B1A8
:1018800072B6FEE70CA90F2081E831004FF4A0509A
:101890000F904FF48050109003210CA8FFF7EEFA40
:1018A000002801D072B6FEE711B030BD7047FEE7E8
:1018B0000907090E002804DB00F1E02080F800147D
:1018C000704700F00F0000F1E02080F8141D704711
:1018D00070B5184DFF244FF48046A1B214230122A5
:1018E0001548FEF7CDFF90B1641E002CF5DC0122F7
:1018F00011462846FEF7F5FE012280212846FEF714
:10190000F0FE012231462846FEF7EBFEFEE70B48CB
:101910000022012104602846FEF7E3FE0022802118
:101920002846FEF7DEFE31462846BDE8704000221C
:10193000FEF7D7BE00040240140000200000002083
:1019400088B0FFF717FAFFF77DFFFFF707FF45485D
:1019500043494FF480460160434941600021816062
:10196000C0E9031641618161C1610162FEF7C4FEF5
:1019700008B172B6FEE73DA1D1E90001CDE903014E
:101980003CA0D0E90010CDE905103AA1D1E9000151
:10199000CDE901013348FEF7AFFE384C90B9002580
:1019A00001212046FEF795FE80212046FEF791FE9C
:1019B00031462046FEF78DFE3220FEF72FFD6D1CCE
:1019C000142DEDDBFFF784FFDFF8B4A02D4D4FF4AD
:1019D000005964274FF4FA7849465046FEF774FEE2
:1019E0000028009728884FF0050381B220D003AA71
:1019F0001FE0012211462046FEF773FE01228021DE
:101A00002046FEF76EFE01220AE000220121204658
:101A1000FEF767FE002280212046FEF762FE0022CC
:101A200031462046FEF75DFE6420FEF7F7FCD3E763
:101A300005AA0C48FFF7CAF83220FEF7EFFCCDF8F4
:101A400000802888052381B201AA0648FEF7CEFF50
:101A50000028E9D19DF804003028D6D1C9E700005C
:101A60000054004014000020A086010031313131C3
:101A70000000000030303030000000000004024060
:101A800000080240000000200000000000000000EC
:101A90000102030406070809000000000102030414
:101AA000C01A00080000002014000000C001000857
:101AB000D41A000814000020B4060000DC0100085D
:101AC000FFFFFFFF01000000100000000000000009
:041AD0000024F400FA
:040000050800018569
:00000001FF
