:020000040800F2
:10000000C806002021020008AB1000089B0F000862
:10001000A910000817040008F911000800000000EA
:10002000000000000000000000000000891100082E
:100030001904000800000000AD1000088B11000832
:100040003B0200083B0200083B0200083B0200089C
:100050003B0200083B0200083B0200083B0200088C
:100060003B0200083B0200083B0200083B0200087C
:100070003B0200083B0200083B0200083B0200086C
:100080003B0200083B0200083B0200083B0200085C
:100090003B0200083B0200083B0200083B0200084C
:1000A0003B0200083B0200083B0200083B0200083C
:1000B0003B0200083B0200083B0200083B0200082C
:1000C0003B0200083B0200083B0200083B0200081C
:1000D0003B0200083B0200083B0200083B0200080C
:1000E0003B0200083B0200083B0200083B020008FC
:1000F0003B0200083B0200083B0200083B020008EC
:100100003B0200083B0200083B0200083B020008DB
:100110003B0200083B0200083B0200083B020008CB
:100120003B0200083B0200083B0200083B020008BB
:100130003B0200083B0200083B0200083B020008AB
:100140003B0200083B0200083B0200083B0200089B
:100150003B0200083B0200083B0200083B0200088B
:100160003B0200083B0200083B0200083B0200087B
:100170003B0200083B0200083B02000800000000B0
:100180003B02000800F002F800F03AF80AA090E8FC
:10019000000C82448344AAF10107DA4501D100F042
:1001A0002FF8AFF2090EBAE80F0013F0010F18BFD5
:1001B000FB1A43F001031847F4100000141100006B
:1001C000103A24BF78C878C1FAD8520724BF30C883
:1001D00030C144BF04680C60704700000023002455
:1001E00000250026103A28BF78C1FBD8520728BF47
:1001F00030C148BF0B6070471FB51FBD10B510BDA3
:1002000000F0CFF81146FFF7F7FF01F007F800F014
:10021000EDF803B4FFF7F2FF03BC00F0F5F80000BF
:100220000948804709480047FEE7FEE7FEE7FEE78A
:10023000FEE7FEE7FEE7FEE7FEE7FEE704480549C6
:10024000054A064B70470000F711000885010008B9
:10025000C8000020C8060020C8020020C8020020F4
:1002600053EA020C00F069802DE9F04B4FF00006D4
:10027000002B1FBFB3FA83F503FA05F424FA05F641
:100280005E4012BF1643B2FA82F502FA05F4C5F1D8
:1002900020051EBF22FA05FC44EA0C04203556EA6C
:1002A000044C4FEA144418BF641C4FF000084FF090
:1002B0000009904271EB030C39D3002919BFB1FA40
:1002C00081F701FA07F6B0FA80F700FA07F6C7F1EE
:1002D00020071EBF20FA07FC46EA0C062037B6FBB3
:1002E000F4FCA7EB0507103F07F01F0BCBF120062E
:1002F0000CFA0BFB2CFA06F644BFB3460026202F5F
:10030000A4BF5E464FF0000B5BEA060C08BF4FF03F
:10031000010B19EB0B09ABFB027C48EB0608C01B79
:1003200006FB02CC0BFB03CC71EB0C01C1E70B46C7
:10033000024641464846BDE8F08B13B54FF0000039
:100340004FF00001AFF30080BDE81C4070474FF054
:10035000000200B5134694469646203922BFA0E815
:100360000C50A0E80C50B1F12001BFF4F7AF090721
:1003700028BFA0E80C5048BF0CC05DF804EB890012
:1003800028BF40F8042B08BF704748BF20F8022B55
:1003900011F0804F18BF00F8012B7047704770476D
:1003A0007047754600F02CF8AE4605006946534686
:1003B00020F00700854618B020B5FFF73FFFBDE8E5
:1003C00020404FF000064FF000074FF000084FF0BC
:1003D000000B21F00701AC46ACE8C009ACE8C0094D
:1003E000ACE8C009ACE8C0098D46704710B50446BA
:1003F000AFF300802046BDE81040FFF70ABF0000C1
:10040000004870476800002001491820ABBEFEE795
:10041000260002007047FEE77047000031B500F08B
:1004200065F9009C0546601C02D00448007804442D
:1004300000F05CF9401BA042FAD338BD0000002058
:100440002DE9F04FDFF85092002309F1040A01264C
:1004500003250AF1040B85B00F270BF1040E12E1FE
:10046000224606FA03F422407ED091F804C00CF034
:10047000030CBCF1010F02D0BCF1020F26D1D0F861
:100480000880CDF800804FEA430805FA08FCCDF853
:100490001080DDF8008028EA0C08CDF80080D1F843
:1004A0000CC0DDF810800CFA08FCDDF800804CEA86
:1004B000080CC0F808C0D0F804C02CEA040C0C7971
:1004C000C4F300149C4044EA0C0444600C79E443F7
:1004D000A40712D0C4684FEA430CCDF808C005FA4F
:1004E0000CFC24EA0C04D1F80880DDF808C008FAF6
:1004F0000CF848EA0408C0F80C800C7904F00304F6
:10050000022C16D1DC0800EB840CCDF808C0DCF816
:1005100020C05C074FEAD46807FA08F42CEA040C00
:100520000C6904FA08F444EA0C04DDF808C0CCF8BD
:10053000204004684FEA430805FA08FC24EA0C044A
:1005400091F804C00CF0030C0CFA08FC4CEA040C03
:10055000C0F800C04C6814F4403F05D04F4CD4F8AC
:1005600000C04CF4804C00E08CE0C4F800C024686B
:1005700023F0030C04F480440094494C6444029436
:10058000D4F808484FEA837C4FEA1C7807FA08FC45
:1005900024EA0C04DFF80CC1604502D14FF0000CD6
:1005A00039E0DFF804C1604502D14FF0010C32E0C0
:1005B000DFF8F8C0604502D14FF0020C2BE0DFF805
:1005C000F0C0604502D14FF0030C24E0DFF8E4C036
:1005D000604502D14FF0040C1DE0DFF8DCC060453F
:1005E00002D14FF0050C16E0DFF8D0C0604502D113
:1005F0004FF0060C0FE0DFF8C8C0604502D14FF0A5
:10060000070C08E0DFF8BCC0604502D14FF0080CD1
:1006100001E04FF0090C0CFA08FC4CEA040C029CB7
:10062000C4F808C8D9F80040CC46D1F804809443F7
:100630005FEAC83800D51443CCF80040DAF800402F
:10064000D446D1F8048094435FEA883800D5144337
:10065000CCF80040DBF80040DC46D1F8048094433D
:100660005FEAC82800D51443CCF80040DEF800400B
:10067000F446D1F8048094435FEA882800D51443F7
:10068000CCF800405B1C0A681446DA407FF4E8AE00
:1006900005B0BDE8F08F0000003C01404438024046
:1006A0000030014000000240000402400008024007
:1006B000000C0240001002400014024000180240EA
:1006C000001C0240002002400069084000D00120C8
:1006D0007047426921EA02030A4043EA024181610C
:1006E00070470AB1816170470904FBE701488068DF
:1006F0007047000000000020024881680278114421
:1007000081607047000000200B4810B5016841F47B
:1007100000710160016841F480610160016841F489
:1007200080710160032000F061F8002000F006F8FD
:1007300000F024F8002010BD003C024070B50D4DC3
:1007400004464FF47A712878B1FBF0F00A49096841
:10075000B1FBF0F000F00DFC48B9102C07D20022DC
:100760002146501E00F022F800206C6070BD012070
:1007700070BD0000000000200C0000200A4808B5F1
:10078000016841F480410160006800F480400090FD
:100790000548001F016841F080510160006800F0C9
:1007A0008050009008BD000044380240F0B40E4B69
:1007B0001B680C46C3F30223C3F10705042D00D9BF
:1007C0000425191D072901D2002300E0DB1E0126A4
:1007D00006FA05F1491E214099409E40761E1640BA
:1007E0003143F0BC00F009BD0CED00E0064900F01B
:1007F000070208684FF6FF03184040EA0220034A48
:1008000010430860704700000CED00E00000FA059E
:100810002DE9F0470E46050063D0DFF81C81D8F8BB
:100820000000F7B200F00F00B04207D288F8007065
:10083000D8F8000000F00F00B04252D128683F4CB9
:10084000810712D5400703D5206840F4E0502060AE
:100850002878000703D5206840F4604020602068B5
:10086000A96820F0F000084320602878C0072BD04A
:10087000324968680839012810D00968022810D068
:10088000890700292DDA216821F003010143216045
:10089000FFF72CFF814641F2883A0EE00968890390
:1008A000EFE78901EDE700BFFFF720FFA0EB0901AB
:1008B000514502D90320BDE8F0872068696800F03F
:1008C0000C00B0EB810FEFD1D8F80010404601F0DA
:1008D0000F01B14207D90770006800F00F00B04265
:1008E00001D00120E7E72878400705D52068E968AE
:1008F00020F4E050084320602878000706D52068DF
:10090000296920F4604040EAC100206000F01EF830
:100910002168F02292FAA2F201F0F001B2FA82F21A
:10092000D140074A515CC840064908600648006843
:10093000FFF704FF0020BEE7003C024008380240F9
:100940009C1200080C00002004000020154810B57F
:10095000006810F00C02144813D04110042A0FD084
:10096000082A0ED10F4C241F2268236802F03F0290
:100970005B0207D52068C0F38810A0FB010106E0E8
:10098000084610BD2168C1F38811A1FB00010023B6
:10099000FFF766FC2168C1F30141491C4900B0FB27
:1009A000F1F010BD083802400024F4002DE9F84FA2
:1009B00004007BD0DFF814B32078ABF10406C00745
:1009C000A6F1040536D0DBF800105846C1F38101CA
:1009D000012907D00068C0F38100022809D13068DE
:1009E000400206D52868800324D560680028E0D03E
:1009F00020E0B6492079891F0870606868B1FFF768
:100A000075FE074605E000BFFFF770FEC01B6428B7
:100A100076D828688003F7D50CE0FFF767FE074615
:100A200005E000BFFFF762FEC01B6428F0D828680D
:100A30008003F7D42078DFF8988280074FF0000910
:100A400044D5DBF80010584611F00C0F4FF0F80AAF
:100A500007D00068C0F38100022809D13068400245
:100A600006D42868800715D5E06801281ED111E05A
:100A7000E068E0B10120C8F80000FFF737FE074644
:100A800005E000BFFFF732FEC01B0228C0D828686F
:100A90008007F7D528689AFAAAF22169B2FA82F299
:100AA00020F0F8009140084328600FE00AE1C8F800
:100AB0000090FFF71BFE074605E000BFFFF716FE9C
:100AC000C01B02281CD828688007F7D420780007AC
:100AD00027D5DFF8F8A17F4861690AF16C0A81B176
:100AE00001210160FFF702FE074604E0FFF7FEFD6B
:100AF000C01B022804D8DAF800008007F6D510E001
:100B000082E0C0F80090FFF7F1FD074605E000BF66
:100B1000FFF7ECFDC01B022876D8DAF8000080074A
:100B2000F6D4207840075FD5DFF8A0A100270AF1AE
:100B3000380ADAF80000C0000BD4DAF8001041F0EF
:100B40008051CAF80010DAF80000012700F0805048
:100B500000906148016841F4807101600168C90535
:100B600012D4016841F480710160FFF7BFFD00906D
:100B700006E000BFFFF7BAFD0099401A02287ED8B0
:100B800055480068C005F5D55049207A683108708D
:100B9000A06888B1FFF7AAFD009007E0FFF7A6FD67
:100BA0000099411A41F28830814268D8474868303C
:100BB00000688007F2D510E0FFF798FD009007E08D
:100BC000FFF794FD0099411A41F28830814256D8CE
:100BD0003E48683000688007F2D42FB1DAF8001080
:100BE00021F08051CAF80010A069B8B3DBF80010FA
:100BF000C1F38101022949D00228C8F8609004D0CD
:100C0000FFF774FD04463DE039E0FFF76FFD07464E
:100C100005E000BFFFF76AFDC01B64282FD82868D5
:100C20008001F7D4D4E907010843616A94F82C20C5
:100C3000890141EA02610843A16A284A490802EB96
:100C4000014108433168264A1140084330600120C1
:100C5000C8F86000FFF74AFD044606E034E000BF34
:100C6000FFF744FD001B642809D828688001F7D5E8
:100C70002AE000BFFFF73AFD001B642802D90320D9
:100C8000BDE8F88F28688001F4D41DE00128F7D072
:100C90003068E26900F48001914213D1226A00F0C9
:100CA0003F0191420ED1616AC0F38812914209D18D
:100CB000A26A00F44031914204D1E16A00F0706010
:100CC000884201D00120DBE70020D9E70838024044
:100CD00000004742800E4742007000400000FFFFC6
:100CE0000080BCF070B5040009D0606A002540B1F6
:100CF00025616561A56294F8510040B10CE00120C6
:100D000070BD6068B0F5827FF4D0E561F2E784F8E9
:100D10005050204600F044F8022084F8510020682A
:100D2000016821F040010160A088218900F48270EF
:100D300001F404410843A18901F400610843217CC6
:100D400001F002010843217D01F001010843218BDC
:100D500001F400710843217F01F03801084394F841
:100D6000201001F080010843218D01F40051084357
:100D700021680860A069042101EA104094F8241059
:100D800001F010010843216848602068C16921F41E
:100D90000061C1616565012084F85100002070BDCB
:100DA00010B586B0044614216846FFF7D0FA1449FE
:100DB0002068884221D113480021026842F4004291
:100DC0000260006800F4004005900E481038026888
:100DD00042F004020260006800F0040005904FF445
:100DE000E05000900220CDE901010320039006208D
:100DF000049069460448FFF723FB06B010BD0000CD
:100E0000003C004040380240000802402DE9F84F05
:100E1000044690F8500000271D46164689460128D2
:100E20000DD04FF0010B84F850B0FFF75FFC804607
:100E300094F85100BA46012804D0022793E002201A
:100E4000BDE8F88FB9F1000F73D0002E71D00320E8
:100E500084F85100C4F854A0C4F83090A686E68601
:100E6000C4F838A0A4F83CA0A4F83EA0C4F844A05C
:100E7000C4F840A0A068B0F5004F09D1206801680F
:100E800021F0400101602068016841F48041016067
:100E900020680168490603D4016841F040010160FF
:100EA000E068B0F5006F606803D030B3012E24D045
:100EB00041E008B1012E1CD1206B21680088C86078
:100EC00006E020688168890709D5216B0988C1601F
:100ED000206B801C2063E08E401EE08609E0FFF757
:100EE00005FCA0EB0800A84202D3681C01D031E049
:100EF0007DB3E08E0028E4D120E0206B21680078EB
:100F0000087306E020688168890709D5216B097894
:100F10000173206B401C2063E08E401EE0860AE0D7
:100F2000FFF7E4FBA0EB0800A84203D3681C02D043
:100F300010E017E06DB1E08E0028E3D1424629466B
:100F4000204600F0B4F808B120206065A06818B110
:100F500006E0FFE7032706E02068C168806800908C
:100F6000606D00B1012784F851B084F850A0384674
:100F700066E710B5401EB0F1807F01D3012010BD9F
:100F80004FF0E02460610F21601700F036F9002077
:100F9000A06107202061002010BDFEE7F0B587B0FA
:100FA00014216846FFF7D3F92B480024016841F06B
:100FB00004010160016801F004010591016841F03C
:100FC00080010160016801F080010591016841F034
:100FD00002010160016801F002010591016841F020
:100FE0004001016000681D4E00F0400044F28105A0
:100FF0000590002229463046FFF773FB184F002268
:1010000040213846FFF76DFB4FF4005000904FF43D
:101010008810CDE9010469461248FFF711FA0095DE
:101020000125CDE90154694630460394FFF708FADB
:1010300040200090CDE90154694638460394FFF7FB
:10104000FFF98020CDE90004694638460294FFF795
:10105000F7F907B0F0BD000030380240000402404C
:1010600000180240000802400E4810B50C4901600B
:101070004FF48271416000218160C1604FF40072C1
:101080000161C0E90512C1610162416281620A2108
:10109000C162FFF727FE002801D072B6FEE710BD3F
:1010A000003C004010000020FEE7FEE7704738B526
:1010B0000B46009204460022802100F009F8002827
:1010C00004D0606D40F020006065032038BD000052
:1010D0002DE9F8431E46914688460446089DFFF7D1
:1010E00005FB401B351AFFF701FB07462548006842
:1010F000C0F3CB30684338E0701C37D0FFF7F6FA06
:10110000C01BA84203D215B1009860B32CE0206840
:10111000416821F0E00141606068B0F5827F0BD149
:10112000A068B0F5004F02D0B0F5806F04D1206800
:10113000016821F040010160A06AB0F5005F09D1AB
:101140002068016821F4005101602068016841F4C1
:1011500000510160012084F85100002084F8500003
:101160000320BDE8F8830025401E009020688168B8
:1011700038EA010004D000214945BDD10020F0E744
:101180000121F9E70C0000207047FFF7B5BA30B530
:1011900091B030216846FFF7DAF814210CA8FFF768
:1011A000D6F801200390022410200490009400251A
:1011B00006940D20CDE90750C320CDE90904052090
:1011C0000B906846FFF7F2FB08B172B6FEE70CA978
:1011D0000F2081E831004FF4A0500F904FF4805061
:1011E000109003210CA8FFF713FB002801D072B662
:1011F000FEE711B030BD7047FEE70907090E002871
:1012000004DB00F1E02080F80014704700F00F00CC
:1012100000F1E02080F8141D704700001CB5FFF7B6
:1012200073FAFFF7B4FFFFF7B9FEFFF71DFF16A132
:10123000174CD1E90001CDE900010022012120462F
:10124000FFF74FFA002280212046FFF74AFA0022DA
:101250004FF480412046FFF744FA0E4E4FF40055FC
:1012600029463046FFF730FA50B16423052269461B
:101270000948FFF7CBFD18B980212046FFF729FA6E
:101280006420FFF7CBF8EBE731313131000000008B
:10129000000402400008024010000020000000008E
:1012A000000000000102030406070809CC12000830
:1012B0000000002010000000C0010008DC1200083F
:1012C00010000020B8060000DC010008010000004A
:0C12D00010000000000000000024F400EA
:040000050800018569
:00000001FF
