:020000040800F2
:100000007007002029020008A716000873150008D1
:10001000A516000853070008A518000800000000F6
:10002000000000000000000000000000AB16000807
:100030005507000800000000A9160008AD160008CA
:10004000430200084302000843020008430200087C
:10005000430200084302000843020008430200086C
:10006000430200084302000843020008430200085C
:10007000430200084302000843020008430200084C
:10008000430200084302000843020008430200083C
:10009000430200084302000843020008430200082C
:1000A000430200084302000843020008430200081C
:1000B000430200084302000843020008430200080C
:1000C00043020008430200084302000843020008FC
:1000D00043020008430200084302000843020008EC
:1000E00043020008430200084302000843020008DC
:1000F00043020008430200084302000843020008CC
:1001000043020008430200084302000843020008BB
:1001100043020008430200084302000843020008AB
:10012000430200084302000843020008430200089B
:10013000430200084302000843020008430200088B
:10014000430200084302000843020008430200087B
:10015000430200084302000843020008430200086B
:10016000430200084302000843020008430200085B
:100170004302000843020008430200080000000098
:100180004302000800F002F800F03FF80AA090E8EF
:10019000000C82448344AAF10107DA4501D100F042
:1001A00034F8AFF2090EBAE80F0013F0010F18BFD0
:1001B000FB1A43F0010318478C180000AC1800002C
:1001C000103A24BF78C878C1FAD8520724BF30C883
:1001D00030C144BF04680C60704700000023002455
:1001E00000250026103A28BF78C1FBD8520728BF47
:1001F00030C148BF0B607047782900F0E9800020CB
:1002000070471FB51FBD10B510BD00F068FA11464C
:10021000FFF7F7FF01F076FB00F086FA03B4FFF773
:10022000F2FF03BC00F08EFA0948804709480047F6
:10023000FEE7FEE7FEE7FEE7FEE7FEE7FEE7FEE796
:10024000FEE7FEE704480549054A064B70470000F3
:1002500019170008850100087001002070070020B0
:10026000700300207003002053EA020C00F0698044
:100270002DE9F04B4FF00006002B1FBFB3FA83F5BA
:1002800003FA05F424FA05F65E4012BF1643B2FAEB
:1002900082F502FA05F4C5F120051EBF22FA05FC1D
:1002A00044EA0C04203556EA044C4FEA144418BFC3
:1002B000641C4FF000084FF00009904271EB030CF2
:1002C00039D3002919BFB1FA81F701FA07F6B0FA5C
:1002D00080F700FA07F6C7F120071EBF20FA07FCD7
:1002E00046EA0C062037B6FBF4FCA7EB0507103FE7
:1002F00007F01F0BCBF120060CFA0BFB2CFA06F6CD
:1003000044BFB3460026202FA4BF5E464FF0000B2B
:100310005BEA060C08BF4FF0010B19EB0B09ABFBB6
:10032000027C48EB0608C01B06FB02CC0BFB03CC8F
:1003300071EB0C01C1E70B46024641464846BDE859
:10034000F08B13B54FF000004FF00001AFF30080C9
:10035000BDE81C40704700000FB41CB5074B06AA4F
:100360007B4469460090059800F0A1F90020694699
:1003700000F0B0F91CBC5DF814FB00007103000034
:1003800070B5044685690068C10601D5302600E0D5
:100390002026C00707D070BDD4E901213046904720
:1003A000206A401C20626D1EF6D570BD70B50446F3
:1003B00085690078C00707D170BDD4E901212020EC
:1003C0009047206A401C20626D1EF6D570BD00006B
:1003D00070B504460D4621461068AFF300802188B1
:1003E000090502D50F4A7A4402E00E4A7A440E32D9
:1003F000002104F1240305E000F00F060009965DDA
:100400005E54491C0028F7D120780023000704D54A
:10041000702D02D009B1022311322046BDE8704090
:1004200000F0E7B81E1600002DE9F05F894604468B
:100430004FF0000ADFF824B1FB44C0F820A02046AA
:10044000E168884700287DD0252806D0D4E901211D
:100450009047206A401C2062F1E700255F46204655
:10046000E16888472028064607DB312E05D2B819F7
:1004700010F8200C08B10543F1E7A80701D525F0D5
:100480000405C4F81CA00027C4F818A02A2E09D01F
:10049000304601F018FA38B304EB8708303EC8F84C
:1004A000186019E059F8041B204604EB870291619B
:1004B000E1688847012F064618D1E069002820DA54
:1004C00025F020051DE0D8F8180000EB800006EBB1
:1004D00040003038C8F818002046E16888470646D2
:1004E00001F0F1F90028EED1012F0AD02E2E08D10B
:1004F0002046E16888477F1C0646022F45F020050C
:10050000C4DBA069002803DA404245F00105A06180
:10051000E80701D025F01005A6B1A6F14100192881
:1005200002D8203645F400654A463146204625600B
:100530004D46FFF761FE60B1012807D0ED1D25F0A3
:10054000070000E007E000F1080978E705F1040979
:1005500075E730467AE7206ABDE8F09FF4150000A1
:1005600010B5431C02E010F8011B71B18107FAD1EC
:100570004FF0013202C88C1A8C4314EAC211F9D030
:10058000C01A0A0603D0C01E10BDC01A10BD0A044E
:1005900001D0801E10BD0902FCD0401E10BD4FF0DE
:1005A000000200B5134694469646203922BFA0E8C3
:1005B0000C50A0E80C50B1F12001BFF4F7AF0907CF
:1005C00028BFA0E80C5048BF0CC05DF804EB8900C0
:1005D00028BF40F8042B08BF704748BF20F8022B03
:1005E00011F0804F18BF00F8012B7047704770471B
:1005F00070472DE9F0470D4699469246044600F1B2
:1006000024080168880604D5E06921F01001216002
:1006100000E00120A84201DD471B00E00027A1699E
:100620007A1902EB0900081AA0612078C00602D4EA
:100630002046FFF7A5FE002608E0D4E901211AF8BC
:1006400006009047206A401C761C20624E45F4DB71
:100650002078C0060AD52046FFF792FE06E0D4E9CE
:10066000012130209047206A401C2062381EA7F1EB
:100670000107F4DC07E0D4E9012118F805009047F0
:10068000206A401C2062281EA5F10105F3DC2046EB
:10069000FFF78CFE2078000602D50220BDE8F08727
:1006A0000120FBE701694A1C02610878704700B528
:1006B0008FB0CDE901310021059105497944CDE99B
:1006C000031011466846FFF7AFFE0FB000BD0000F3
:1006D000E5FFFFFF0A6802F8010B0A6070477546E4
:1006E00000F02CF8AE4605006946534620F007009E
:1006F000854618B020B5FFF7A5FDBDE820404FF0B6
:1007000000064FF000074FF000084FF0000B21F0FB
:100710000701AC46ACE8C009ACE8C009ACE8C009C8
:10072000ACE8C0098D46704710B50446AFF30080B1
:100730002046BDE81040FFF771BD0000004870473B
:100740001001002001491820ABBEFEE72600020080
:100750007047FEE77047000031B500F059F9009C82
:100760000546601C02D004480078044400F050F9AB
:10077000401BA042FAD338BD040000202DE9F04F01
:10078000DFF85092002309F1040A012603250AF13B
:10079000040B85B00F270BF1040E12E1224606FA76
:1007A00003F422407ED091F804C00CF0030CBCF19D
:1007B000010F02D0BCF1020F26D1D0F80880CDF88D
:1007C00000804FEA430805FA08FCCDF81080DDF8F8
:1007D000008028EA0C08CDF80080D1F80CC0DDF8C4
:1007E00010800CFA08FCDDF800804CEA080CC0F818
:1007F00008C0D0F804C02CEA040C0C79C4F300142F
:100800009C4044EA0C0444600C79E443A40712D0F1
:10081000C4684FEA430CCDF808C005FA0CFC24EA82
:100820000C04D1F80880DDF808C008FA0CF848EA92
:100830000408C0F80C800C7904F00304022C16D1D3
:10084000DC0800EB840CCDF808C0DCF820C05C07A5
:100850004FEAD46807FA08F42CEA040C0C6904FA8D
:1008600008F444EA0C04DDF808C0CCF82040046821
:100870004FEA430805FA08FC24EA0C0491F804C086
:100880000CF0030C0CFA08FC4CEA040CC0F800C095
:100890004C6814F4403F05D04F4CD4F800C04CF4E1
:1008A000804C00E08CE0C4F800C0246823F0030C06
:1008B00004F480440094494C64440294D4F80848F9
:1008C0004FEA837C4FEA1C7807FA08FC24EA0C0400
:1008D000DFF80CC1604502D14FF0000C39E0DFF8C1
:1008E00004C1604502D14FF0010C32E0DFF8F8C0DE
:1008F000604502D14FF0020C2BE0DFF8F0C06045FC
:1009000002D14FF0030C24E0DFF8E4C0604502D1CF
:100910004FF0040C1DE0DFF8DCC0604502D14FF061
:10092000050C16E0DFF8D0C0604502D14FF0060C90
:100930000FE0DFF8C8C0604502D14FF0070C08E0B7
:10094000DFF8BCC0604502D14FF0080C01E04FF069
:10095000090C0CFA08FC4CEA040C029CC4F808C808
:10096000D9F80040CC46D1F8048094435FEAC838F7
:1009700000D51443CCF80040DAF80040D446D1F852
:10098000048094435FEA883800D51443CCF80040D3
:10099000DBF80040DC46D1F8048094435FEAC828C5
:1009A00000D51443CCF80040DEF80040F446D1F8FE
:1009B000048094435FEA882800D51443CCF80040B3
:1009C0005B1C0A681446DA407FF4E8AE05B0BDE867
:1009D000F08F0000003C01404438024000300140EC
:1009E000000002400004024000080240000C0240E7
:1009F000001002400014024000180240001C024097
:100A0000002002400AB1816170470904FBE7000041
:100A100001488068704700000400002070B50400A1
:100A200025D094F83D00002520B984F83C5020469C
:100A300000F06EF9242084F83D002068016821F060
:100A4000010101602068016841F4004101602068F3
:100A5000016821F40041016000F0BAFA4D4A616872
:100A6000914201D84C4900E04C49884201D2012012
:100A700070BD4B492368B0FBF1F15E6826F03F067C
:100A80000E435E606368934206D94FF496735943F0
:100A90004FF47A73B1FBF3F12368491C1E6A26F008
:100AA0003F06314319626168914210D84900401EE7
:100AB000B0FBF1F2521CC2F30B02042A01D2042053
:100AC00022E0B0FBF1F0401CC0F30B001CE0A26878
:100AD000F2B301EBC10303EB0116431EB3FBF6F3C4
:100AE0005B1C43F480431B0549D092B301EBC10268
:100AF00002EB0111401EB0FBF1F0401CC0F30B00F3
:100B000040F4804040F400402168CA694CF6FF730D
:100B10009A431043C861D4E9071001432068026872
:100B200022F0C00211430160D4E9030101432068AF
:100B3000826848F2FF339A4311438160D4E905018A
:100B400008432168CA6822F0FF021043C86001E030
:100B50000EE016E02068016841F0010101602564A3
:100B6000202084F83D00256384F83E50002070BDAD
:100B700001EB4106431EB3FBF6F35B1CB3E7012018
:100B8000C2E701EB4101401EB0FBF1F0401CC0F395
:100B90000B00B7E7A086010080841E0000093D001D
:100BA00040420F002DE9FF4F81B089460446FFF710
:100BB0002FFF054694F83D004FF0010820287DD115
:100BC0001923012250492046009500F0D3FC00284B
:100BD00074D194F83C00012870D0012084F83C00C6
:100BE00020680168C90703D1016841F00101016073
:100BF0002068016821F400610160242084F83D0030
:100C0000002626644148E0624FF0011B202720683F
:100C1000016841F480710160009500225946204628
:100C2000049B00F0A7FC50B120680068C00502D505
:100C30004FF400702064032005B0BDE8F08F2168F8
:100C400009F0FE000861FFF7E3FE216805464869E8
:100C50004969C0F34000C1F380214FF0A00A0FE0C2
:100C6000FFF7D6FE411B0498814200D808B984F8EA
:100C70003DA0216848694969C0F34000C1F3802163
:100C800094F83D20A02A02D008B90029E8D084F8C1
:100C90003D7020684169C943890716D4016841F451
:100CA0000071016020684169806919230122164999
:100CB0002046009500F05EFCB8B900E021E084F821
:100CC0003D7084F83C600020B6E7016841F4007193
:100CD000016021686FF480604861192301220A498C
:100CE0002046009500F046FC08B10120A4E70398D7
:100CF00008F1010880458AD384F83D7084F83C608F
:100D0000F3E7022098E70000020010000000FFFF58
:100D100010B586B0044614216846FFF740FC14491C
:100D20002068884221D113480021026842F0020263
:100D30000260006800F0020005904FF440700090DF
:100D40001220CDE90101032003900420049069469C
:100D50000948FFF713FD07481030016841F40011FE
:100D60000160006800F40010059006B010BD00009E
:100D700000540040303802400004024002488168BC
:100D80000278114481607047040000200B4810B5C0
:100D9000016841F400710160016841F48061016003
:100DA000016841F480710160032000F061F80020C7
:100DB00000F006F800F024F8002010BD003C0240CE
:100DC00070B50D4D04464FF47A712878B1FBF0F000
:100DD0000A490968B1FBF0F000F0F6FA48B9102CA6
:100DE00007D200222146501E00F022F800206C603D
:100DF00070BD012070BD0000040000201000002024
:100E00000A4808B5016841F480410160006800F4B7
:100E1000804000900548001F016841F0805101604A
:100E2000006800F08050009008BD00004438024087
:100E3000F0B40E4B1B680C46C3F30223C3F1070545
:100E4000042D00D90425191D072901D2002300E033
:100E5000DB1E012606FA05F1491E214099409E40FD
:100E6000761E16403143F0BC00F01DBD0CED00E0D5
:100E7000064900F0070208684FF6FF03184040EAF1
:100E80000220034A10430860704700000CED00E0A8
:100E90000000FA052DE9F0470E46050063D0DFF8A3
:100EA0001C81D8F80000F7B200F00F00B04207D262
:100EB00088F80070D8F8000000F00F00B04252D15E
:100EC00028683F4C810712D5400703D5206840F4BD
:100ED000E05020602878000703D5206840F4604087
:100EE00020602068A96820F0F0000843206028787E
:100EF000C0072BD0324968680839012810D009682A
:100F0000022810D0890700292DDA216821F0030179
:100F100001432160FFF77CFD814641F2883A0EE0F3
:100F200009688903EFE78901EDE700BFFFF770FD6E
:100F3000A0EB0901514502D90320BDE8F0872068E4
:100F4000696800F00C00B0EB810FEFD1D8F8001009
:100F5000404601F00F01B14207D90770006800F068
:100F60000F00B04201D00120E7E72878400705D5FF
:100F70002068E96820F4E0500843206028780007E2
:100F800006D52068296920F4604040EAC10020604D
:100F900000F04EF82168F02292FAA2F201F0F0017E
:100FA000B2FA82F2D140074A515CC8400649086053
:100FB00006480068FFF704FF0020BEE7003C02403F
:100FC00008380240F0190008100000200800002036
:100FD00008480949006809684FF4E05292FAA2F201
:100FE00001F4E051B2FA82F2D140044A515CC840A7
:100FF000704700001000002008380240001A000866
:1010000008480949006809684FF4604292FAA2F260
:1010100001F46041B2FA82F2D140044A515CC84006
:10102000704700001000002008380240001A000835
:10103000154810B5006810F00C02144813D0411088
:10104000042A0FD0082A0ED10F4C241F22682368CF
:1010500002F03F025B0207D52068C0F38810A0FBB6
:10106000010106E0084610BD2168C1F38811A1FB0B
:1010700000010023FFF7F8F82168C1F30141491C82
:101080004900B0FBF1F010BD083802400024F40024
:101090002DE9F84F04007BD0DFF814B32078ABF1D2
:1010A0000406C007A6F1040536D0DBF80010584648
:1010B000C1F38101012907D00068C0F38100022833
:1010C00009D13068400206D52868800324D56068BD
:1010D0000028E0D020E0B6492079891F08706068B8
:1010E00068B1FFF795FC074605E000BFFFF790FCED
:1010F000C01B642876D828688003F7D50CE0FFF77A
:1011000087FC074605E000BFFFF782FCC01B642890
:10111000F0D828688003F7D42078DFF89882800719
:101120004FF0000944D5DBF80010584611F00C0FC1
:101130004FF0F80A07D00068C0F38100022809D1F7
:101140003068400206D42868800715D5E068012879
:101150001ED111E0E068E0B10120C8F80000FFF7FF
:1011600057FC074605E000BFFFF752FCC01B0228F2
:10117000C0D828688007F7D528689AFAAAF22169AA
:10118000B2FA82F220F0F8009140084328600FE0A4
:101190000AE1C8F80090FFF73BFC074605E000BFF6
:1011A000FFF736FCC01B02281CD828688007F7D43C
:1011B0002078000727D5DFF8F8A17F4861690AF198
:1011C0006C0A81B101210160FFF722FC074604E0AF
:1011D000FFF71EFCC01B022804D8DAF800008007C5
:1011E000F6D510E082E0C0F80090FFF711FC07464A
:1011F00005E000BFFFF70CFCC01B022876D8DAF828
:1012000000008007F6D4207840075FD5DFF8A0A162
:1012100000270AF1380ADAF80000C0000BD4DAF827
:10122000001041F08051CAF80010DAF800000127E0
:1012300000F0805000906148016841F480710160C5
:101240000168C90512D4016841F480710160FFF79B
:10125000DFFB009006E000BFFFF7DAFB0099401AC1
:1012600002287ED855480068C005F5D55049207A37
:1012700068310870A06888B1FFF7CAFB009007E0EA
:10128000FFF7C6FB0099411A41F28830814268D8C5
:101290004748683000688007F2D510E0FFF7B8FBD8
:1012A000009007E0FFF7B4FB0099411A41F2883043
:1012B000814256D83E48683000688007F2D42FB18A
:1012C000DAF8001021F08051CAF80010A069B8B314
:1012D000DBF80010C1F38101022949D00228C8F8C7
:1012E000609004D0FFF794FB04463DE039E0FFF73F
:1012F0008FFB074605E000BFFFF78AFBC01B642891
:101300002FD828688001F7D4D4E907010843616A1F
:1013100094F82C20890141EA02610843A16A284A15
:10132000490802EB014108433168264A114008434D
:1013300030600120C8F86000FFF76AFB044606E051
:1013400034E000BFFFF764FB001B642809D828685D
:101350008001F7D52AE000BFFFF75AFB001B642885
:1013600002D90320BDE8F88F28688001F4D41DE07D
:101370000128F7D03068E26900F48001914213D16E
:10138000226A00F03F0191420ED1616AC0F38812D7
:10139000914209D1A26A00F44031914204D1E16A3C
:1013A00000F07060884201D00120DBE70020D9E71F
:1013B0000838024000004742800E4742007000405B
:1013C0000000FFFF0080BCF010B5401EB0F1807F30
:1013D00001D3012010BD4FF0E02460610F216017A0
:1013E00000F061FA0020A06107202061002010BDFC
:1013F00070B5040004D094F83D00002510B106E05B
:10140000012070BD84F83C50204600F023F82420D1
:1014100084F83D002068C16821F40051C160204675
:1014200000F07CF92068016921F490410161206895
:10143000416921F02A0141612068C16841F40051ED
:10144000C1602564202084F83D0084F83E0000201F
:1014500070BD000010B586B0044614216846FFF741
:101460009EF814492068884221D11348002102685F
:1014700042F020020260006800F0200005900E4853
:101480001438026842F040020260006800F0400038
:1014900005904FF4844000900220CDE90101032023
:1014A00003900820049069460448FFF767F906B0E6
:1014B00010BD0000001401404438024000180240F2
:1014C0002DE9F843044690F83D001F4616460D46A8
:1014D00020284CD1C5B1BEB194F83C00012846D0BB
:1014E000012084F83C004FF00008C4F8408021201F
:1014F00084F83D00FFF78CFAA6848146E684A06854
:10150000B0F5805F03D004E00120BDE8F8832069D6
:1015100028B12E465FF0000584F83C800EE00026DE
:10152000FAE78021204600F08BF9A0B9AEB116F899
:10153000010B21684860E08C401EE084E08C4B4643
:101540004FF0000200970028EBD14FF040012046F9
:1015500000F076F930B10320D7E735F8020BC0F37D
:101560000800E6E7202084F83D000020CDE70220B7
:10157000CBE7FEE72DE9F0471E4690460D460446B0
:10158000C1F30747DDF8209008E0701C06D0FFF794
:101590003FFAA0EB0900B0420FD876B12068012FC6
:1015A00018D0806925EA00000004000C14D0002146
:1015B0004145EAD00020BDE8F087002044F8300F14
:1015C00020216173A073216941F020012161207302
:1015D0000120F0E74069E5E70121E9E7F0B587B0D0
:1015E00014216846FEF7DBFF2A480024016841F019
:1015F00004010160016801F004010591016841F0F6
:1016000080010160016801F080010591016841F0ED
:1016100002010160016801F002010591016841F0D9
:101620004001016000681C4E00F0400044F20105DA
:101630000590002229463046FFF7E4F9174F0022B3
:1016400040213846FFF7DEF9681000904FF488100B
:10165000CDE9010469461248FFF790F8009501258D
:10166000CDE90154694630460394FFF787F84020DE
:101670000090CDE90154694638460394FFF77EF89F
:101680008020CDE90004694638460294FFF776F8D9
:1016900007B0F0BD3038024000040240001802409C
:1016A00000080240FEE7FEE770477047FFF766BBA1
:1016B00030B591B030216846FEF771FF14210CA8B7
:1016C000FEF76DFF01200390022410200490009487
:1016D000002506940D20CDE90750C320CDE909046B
:1016E00005200B906846FFF7D3FC08B172B6FEE701
:1016F0000CA90F2081E831004FF4A0500F904FF457
:101700008050109003210CA8FFF7C4FB002801D0E3
:1017100072B6FEE711B030BD704700002DE9F04110
:10172000044600680169E26821F4405111430161F7
:101730002169A068E269084361691143226808438E
:10174000D16849F20C6399430143D1602068416933
:10175000A26921F4407111434161374920688842F0
:1017600002D03649884202D1FFF74AFC01E0FFF778
:101770002FFC0246E36964203221B3F5004F02EBEF
:10178000C20303EB021362682BD09200B3FBF2F5A5
:10179000B5FBF0F5B3FBF2F66FF018077D4306EBEF
:1017A0008505B3FBF2F601EB0515B5FBF0F5B6FBCD
:1017B000F0F605F0F00505EB0615B3FBF2F6B3FB0A
:1017C000F2F2B2FBF0F27A4306EB820201EB021175
:1017D000B1FBF0F000F00F00216828448860BDE8FC
:1017E000F0815200B3FBF2F6B6FBF0F6B3FBF2F772
:1017F000B3FBF2F56FF0180C06FB0CF607EB860650
:1018000001EBC606B5FBF0F5B6FBF0F62D0106F0D0
:10181000F80605EB4605B3FBF2F6B3FBF2F2B2FBBA
:10182000F0F202FB0CF206EB820201EBC201B1FB0B
:10183000F0F000F00700CFE7001001400014014075
:101840002DE9F041984617460E460446069D1DE0D8
:10185000681C1BD02DB1FFF7DBF8A0EB0800A842F5
:1018600014D92068C16821F4D071C1602068416931
:1018700021F001014161202084F83D0084F83E0000
:10188000002084F83C000320BDE8F0812068006857
:1018900036EA000004D00020B842D9D00020F3E797
:1018A0000120F9E7FEE70907090E002804DB00F133
:1018B000E02080F80014704700F00F0000F1E020F5
:1018C00080F8141D704730380A2801D20120704773
:1018D0000020704770B5094D0024A1B26423012295
:1018E0000748FFF75FF930B1641CFF2CF5DB4FF0C0
:1018F000FF30286070BD2C6070BD0000000000202B
:1019000014000020FFF742FAFFF7D2FEFFF766FE51
:1019100025482449002401602449C0E901144FF4FA
:101920008041C0E9034144618461C4610462FFF7FE
:1019300075F808B172B6FEE71B481D4954300160C6
:101940004FF4E131C0E901140C21C460C0E9044145
:101950008461C461FFF74CFD164C08B172B6FEE716
:101960004FF47A75FFF7B6FF2268002A05DB0E48B0
:1019700011A19830FEF7F0FC04E00B4814A1983058
:10198000FEF7EAFC08489830FEF7EAFD064982B205
:1019900098316423A1F14400FFF792FD2846FEF739
:1019A000DBFEDFE70054004014000020801A060030
:1019B0000014014000000020536C617665204164F2
:1019C00064726573733A20253032580A00000000B3
:1019D0005468657265204973204E6F20436F6E6EA8
:1019E0006563746564204465766963650A00000078
:1019F00000000000000000000102030406070809BF
:101A00000000000001020304303132333435363730
:101A10003839414243444546403058003031323332
:101A20003435363738396162636465664030780032
:101A30000400000800000000000000020001000097
:101A400010000000641A00080000002014000000CC
:101A5000C0010008781A0008140000205C0700008C
:101A6000DC010008FFFFFFFF010000001000000084
:081A7000000000000024F40056
:040000050800018569
:00000001FF
