:020000040800F2
:10000000680B0020210200082F1A0008C5180008FC
:100010002D1A000841060008A91E00080000000073
:10002000000000000000000000000000331A00087B
:10003000F506000800000000311A0008351A000813
:100040003B0200083B0200083B0200083B0200089C
:100050003B0200083B0200083B0200083B0200088C
:100060003B0200083B0200083B0200083B0200087C
:100070003B0200083B0200083B0200083B0200086C
:100080003B0200083B0200083B0200083B0200085C
:100090003B0200083B0200083B0200083B0200084C
:1000A0003B0200083B0200083B0200083B0200083C
:1000B0003B0200083B0200083B0200083B0200082C
:1000C0003B0200083B0200083B0200083B0200081C
:1000D0003B0200083B0200083B0200083B0200080C
:1000E0003B0200083B0200083B0200083B020008FC
:1000F0003B0200083B0200083B0200083B020008EC
:100100003B0200083B0200083B0200083B020008DB
:100110003B0200083B0200083B0200083B020008CB
:10012000450600083B0200083B0200083B020008AD
:100130003B0200083B0200083B0200083B020008AB
:100140003B0200083B0200083B0200083B0200089B
:100150003B0200083B0200083B0200083B0200088B
:100160003B0200083B0200083B0200083B0200087B
:100170003B0200083B0200083B02000800000000B0
:100180003B02000800F002F800F03AF80AA090E8FC
:10019000000C82448344AAF10107DA4501D100F042
:1001A0002FF8AFF2090EBAE80F0013F0010F18BFD5
:1001B000FB1A43F001031847E41D0000041E000071
:1001C000103A24BF78C878C1FAD8520724BF30C883
:1001D00030C144BF04680C60704700000023002455
:1001E00000250026103A28BF78C1FBD8520728BF47
:1001F00030C148BF0B6070471FB51FBD10B510BDA3
:1002000000F001F91146FFF7F7FF01F05FFE00F083
:100210001FF903B4FFF7F2FF03BC00F027F9000059
:100220000948804709480047FEE7FEE7FEE7FEE78A
:10023000FEE7FEE7FEE7FEE7FEE7FEE704480549C6
:10024000054A064B70470000A11A00088501000806
:1002500068050020680B0020680700206807002060
:1002600053EA020C00F069802DE9F04B4FF00006D4
:10027000002B1FBFB3FA83F503FA05F424FA05F641
:100280005E4012BF1643B2FA82F502FA05F4C5F1D8
:1002900020051EBF22FA05FC44EA0C04203556EA6C
:1002A000044C4FEA144418BF641C4FF000084FF090
:1002B0000009904271EB030C39D3002919BFB1FA40
:1002C00081F701FA07F6B0FA80F700FA07F6C7F1EE
:1002D00020071EBF20FA07FC46EA0C062037B6FBB3
:1002E000F4FCA7EB0507103F07F01F0BCBF120062E
:1002F0000CFA0BFB2CFA06F644BFB3460026202F5F
:10030000A4BF5E464FF0000B5BEA060C08BF4FF03F
:10031000010B19EB0B09ABFB027C48EB0608C01B79
:1003200006FB02CC0BFB03CC71EB0C01C1E70B46C7
:10033000024641464846BDE8F08B13B54FF0000039
:100340004FF00001AFF30080BDE81C40704710B5CE
:10035000203AC0F00B80B1E81850203AA0E81850BD
:10036000B1E81850A0E81850BFF4F5AF5FEA027C7E
:1003700024BFB1E81850A0E8185044BF18C918C0ED
:10038000BDE810405FEA827C24BF51F8043B40F88E
:10039000043B08BF7047D20728BF31F8023B48BF73
:1003A00011F8012B28BF20F8023B48BF00F8012BB1
:1003B00070474FF0000200B5134694469646203928
:1003C00022BFA0E80C50A0E80C50B1F12001BFF40E
:1003D000F7AF090728BFA0E80C5048BF0CC05DF874
:1003E00004EB890028BF40F8042B08BF704748BFC2
:1003F00020F8022B11F0804F18BF00F8012B704736
:10040000704770477047754600F02CF8AE460500FF
:100410006946534620F00700854618B020B5FFF71F
:100420000DFFBDE820404FF000064FF000074FF0F1
:1004300000084FF0000B21F00701AC46ACE8C00902
:10044000ACE8C009ACE8C009ACE8C0098D4670470B
:1004500010B50446AFF300802046BDE81040FFF71A
:10046000D8BE00000048704704050020014918204C
:10047000ABBEFEE726000200704710B50146806B58
:10048000026C12F0500F05D0026CD20626D500F097
:10049000DFF910BD016C41F40071016401688A68E4
:1004A00012F0405F17D1027EAAB9CA6A12F4700F27
:1004B00002D08A6852050ED44A6822F020024A60AF
:1004C000016C21F480710164016CC90403D4016CD6
:1004D00041F00101016400F0B9F910BD806BC26CFC
:1004E000BDE810400846104710B5806B40210164FC
:1004F000416C41F00401416400F0AAF910BD10B54F
:10050000806B00F0A4F910BD4B4910B5D1F804235D
:1005100022F44032C1F80423D1F8042343681A437B
:10052000C1F8042301684A6822F480724A600168B5
:100530004A68036942EA03224A6001684A6822F075
:1005400040724A6001684A6883681A434A600168D9
:100550008A6822F400628A6001688A68C3681A4364
:100560008A60816A6FF07062D14201688A6822F005
:1005700070628A6001688A680CD0836A1A438A6054
:1005800001688A6822F040528A6001688A68C36AFA
:100590001A4301E022F040528A6001688A6822F022
:1005A00002028A6001688A68037E42EA43028A6026
:1005B00090F82010002901684A6815D042F40062C2
:1005C0004A6001684A6822F460424A6001684B68E8
:1005D0004FF46044426A94FAA4F4B4FA84F4521ECC
:1005E000A24013434B6002E022F400624A600168BB
:1005F000CA6A22F47002CA620168CA6A838B0F4C0D
:1006000004EB03531A43CA6201688A6822F4007239
:100610008A6001688A6890F8303042EA43228A6032
:1006200001688A6822F480628A6001688A68406989
:1006300042EA8020886010BD002001400000F0FFE9
:10064000FEE70000014800F005BA0000A404002005
:1006500001681823CAB2103AB2FBF3F2054B6FF3EC
:100660000901032A9B5CC36500D9091D8165084601
:10067000704700007C1F000810B5014600208B6900
:100680008A6A4FF0C07453B1B3F5005F15D072B1F0
:10069000012A0CD0022A0AD0032A09D104E01AB197
:1006A000012A06D0022A03D1C96AC90100D5012056
:1006B00010BDC96AA142FAD010BD002AF7D0012AA4
:1006C000F2D0022AF3D0032AF3D010BD30B504686B
:1006D000256825F480252560046863608368402BC5
:1006E000036803D099600068C26030BD9A600068FA
:1006F000C16030BD704772B6FEE7000078B50024D7
:10070000009490F83C20012A19D0012280F83C2066
:100710000A6807230568092A13D9EE680A3A02EB2A
:10072000420293409E43EE600B788A680A3B03EBDB
:1007300043039A400368DD682A43DA6010E0022030
:1007400078BD2E6902EB420293409E432E610A78E7
:100750008B6802EB42029340026815692B431361D8
:100760004A681F23072A13D205686E6B521E02EBDC
:10077000820293409E436E630B790A885B1E92B29D
:1007800003EB83039A4003685D6B2A435A6327E0B7
:1007900005680D2A12D22E6BD21F02EB8202934003
:1007A0009E432E630B790A88DB1F92B203EB83030F
:1007B0009A4003681D6B2A431A6311E0EE6A0D3AF2
:1007C00002EB820293409E43EE620B790A880D3B56
:1007D00092B203EB83039A400368DD6A2A43DA622C
:1007E000174A0368934208D10B68122B05D1D2F83F
:1007F000043343F48003C2F80433036893421AD1EC
:100800000B68102B01D0112B15D1D2F8043343F40F
:100810000003C2F80433096810290CD109490A4AB7
:100820000968B1FBF2F101EB8101490000E0491ECA
:1008300000910029FBD180F83C40002078BD0000E9
:10084000002001401400002040420F007047704714
:10085000704770B504004FF0000503D0206C0026EF
:1008600010B107E0012070BD204600F01DF866645D
:1008700084F83C60206CC00610D4206C20F48850B2
:1008800040F0020020642046FFF73EFE6664206CC4
:1008900020F0020040F00100206400E0012584F80F
:1008A0003C60284670BD000070B586B00646142135
:1008B0006846FFF77EFD1E493068884236D11D48E4
:1008C0000025016841F480710160006800F48070C7
:1008D000059018481438016841F001010160006872
:1008E000694600F001000590092000900320CDE941
:1008F0000105114800F032FA114C1048C4E9000516
:100900000015A560C4E90350400060618000A0614B
:100910004011E0614FF44030C4E90805204600F082
:1009200069F908B1FFF7E7FEB463A66306B070BDCE
:1009300000200140443802400000024010640240A0
:10094000A4040020F8B50D4600210446009190F85B
:100950003C00012807D0012084F83C00206883680F
:10096000DB0702D011E00220F8BD836843F00103E9
:1009700083603248324B0068B0FBF3F000EB40007C
:1009800000E0401E00900028FBD120688368DB0750
:1009900049D0236C40F20166B34343F4807323646F
:1009A0004068400505D5206C20F4005040F480508C
:1009B0002064206CC00404D5606C20F006006064E4
:1009C00000E0616484F83C10A16B1E48C863A16B11
:1009D0001D480864A16B1D48C86421686FF022009F
:1009E00008602068416841F080614160206881684A
:1009F00041F480718160216813462A464C31A06B16
:100A000000F062F91249D1F80403C006206801D051
:100A1000884210D1816811F0405F0CD1816841F0AB
:100A20008041816007E0206C40F010002064606C21
:100A300040F0010060640020F8BD000014000020B8
:100A400040420F007B040008FF040008E90400088E
:100A5000002001402DE9F84304464FF00009CDF88D
:100A6000009063484FF41651A56D0068B0FBF1F794
:100A70002E6894F85C10082000FA01F131420FD082
:100A800021680A6852070BD50A6822F004020A603E
:100A900094F85C108840A860606D40F001006065CB
:100AA00094F85C104FF0010808FA01F0304208D0C9
:100AB00021684969090604D5A860606D40F002000C
:100AC000606594F85C1004208840304208D02168AA
:100AD0000968890704D5A860606D40F0040060656E
:100AE00094F85C1010208840304218D021680968C2
:100AF000090714D5A86020680168490304D5006877
:100B0000000308D5A16C07E00168C90503D401689A
:100B100021F008010160216C09B12046884794F852
:100B20005C1020208840304231D021680968C90615
:100B30002DD5A86094F8350005282068016806D0F6
:100B4000490347D5006800031DD4616C1CE021F007
:100B5000160101602068416921F080014161206C2B
:100B600008B9A06C20B12068016821F0080101607B
:100B700094F85C103F208840A86084F8358084F8A1
:100B80003490216D1FE0E16B09B120468847606D0C
:100B900000282BD0606DC00714D0052084F83500E4
:100BA0002068016821F0010101600098401C00905C
:100BB000B84203D820680068C007F6D184F83580B1
:100BC00084F83490E16C002910D001B02046BDE8D3
:100BD000F04308470168C905D5D4016821F0100128
:100BE000016084F8358084F83490CCE7BDE8F88360
:100BF000140000202DE9F041044600F0F9F9064602
:100C00005CB1022084F83500002584F83450206857
:100C1000016821F0010101600DE00120BDE8F081D3
:100C200000F0E6F9801B052805D920206065032027
:100C300084F83500F2E720680068C007F0D1226828
:100C4000116820480140D4E901031843D4E9033670
:100C50003343184363691843A3691843E36918438E
:100C6000236A18430843616A042903D1D4E90B13AA
:100C700019430843106020684069666A20F0070144
:100C800030460E43012704280CD1A06A0643E06ACF
:100C900040B12046FFF7F0FC20B14020606584F8A9
:100CA0003570BAE7206846612046FFF7D1FC94F81A
:100CB0005C203F2191408160656584F8357000209B
:100CC000ACE700003F8010F02DE9F0410446866D4E
:100CD00090F83400002501280DD0012084F834005C
:100CE00094F835700020012F07D084F834000225D5
:100CF0002846BDE8F0810220FBE7022784F8357022
:100D000060652046FFF7E2FC94F85C103F208840C5
:100D1000B0602068016841F016010160206C20B1CC
:100D20002068016841F0080101602068016841F015
:100D300001010160DCE7000031B500F059F9009CC9
:100D40000546601C02D004480078044400F050F9C5
:100D5000401BA042FAD338BD080000202DE9F04F17
:100D6000DFF85092002309F1040A012603250AF155
:100D7000040B85B00F270BF1040E12E1224606FA90
:100D800003F422407ED091F804C00CF0030CBCF1B7
:100D9000010F02D0BCF1020F26D1D0F80880CDF8A7
:100DA00000804FEA430805FA08FCCDF81080DDF812
:100DB000008028EA0C08CDF80080D1F80CC0DDF8DE
:100DC00010800CFA08FCDDF800804CEA080CC0F832
:100DD00008C0D0F804C02CEA040C0C79C4F3001449
:100DE0009C4044EA0C0444600C79E443A40712D00C
:100DF000C4684FEA430CCDF808C005FA0CFC24EA9D
:100E00000C04D1F80880DDF808C008FA0CF848EAAC
:100E10000408C0F80C800C7904F00304022C16D1ED
:100E2000DC0800EB840CCDF808C0DCF820C05C07BF
:100E30004FEAD46807FA08F42CEA040C0C6904FAA7
:100E400008F444EA0C04DDF808C0CCF8204004683B
:100E50004FEA430805FA08FC24EA0C0491F804C0A0
:100E60000CF0030C0CFA08FC4CEA040CC0F800C0AF
:100E70004C6814F4403F05D04F4CD4F800C04CF4FB
:100E8000804C00E08CE0C4F800C0246823F0030C20
:100E900004F480440094494C64440294D4F8084813
:100EA0004FEA837C4FEA1C7807FA08FC24EA0C041A
:100EB000DFF80CC1604502D14FF0000C39E0DFF8DB
:100EC00004C1604502D14FF0010C32E0DFF8F8C0F8
:100ED000604502D14FF0020C2BE0DFF8F0C0604516
:100EE00002D14FF0030C24E0DFF8E4C0604502D1EA
:100EF0004FF0040C1DE0DFF8DCC0604502D14FF07C
:100F0000050C16E0DFF8D0C0604502D14FF0060CAA
:100F10000FE0DFF8C8C0604502D14FF0070C08E0D1
:100F2000DFF8BCC0604502D14FF0080C01E04FF083
:100F3000090C0CFA08FC4CEA040C029CC4F808C822
:100F4000D9F80040CC46D1F8048094435FEAC83811
:100F500000D51443CCF80040DAF80040D446D1F86C
:100F6000048094435FEA883800D51443CCF80040ED
:100F7000DBF80040DC46D1F8048094435FEAC828DF
:100F800000D51443CCF80040DEF80040F446D1F818
:100F9000048094435FEA882800D51443CCF80040CD
:100FA0005B1C0A681446DA407FF4E8AE05B0BDE881
:100FB000F08F0000003C0140443802400030014006
:100FC000000002400004024000080240000C024001
:100FD000001002400014024000180240001C0240B1
:100FE000002002400AB1816170470904FBE700005C
:100FF00001488068704700000800002002488168AE
:101000000278114481607047080000200B4810B539
:10101000016841F400710160016841F48061016080
:10102000016841F480710160032000F06FF8002036
:1010300000F006F800F024F8002010BD003C02404B
:1010400070B50D4D04464FF47A712878B1FBF0F07D
:101050000A490968B1FBF0F000F0B8FB48B9102C60
:1010600007D200222146501E00F030F800206C60AC
:1010700070BD012070BD0000080000201400002099
:101080000A4808B5016841F480410160006800F435
:10109000804000900548001F016841F080510160C8
:1010A000006800F08050009008BD00004438024005
:1010B000002809DB00F01F02012191404009800057
:1010C00000F1E020C0F8001170470000F0B40E4BB2
:1010D0001B680C46C3F30223C3F10705042D00D996
:1010E0000425191D072901D2002300E0DB1E01267B
:1010F00006FA05F1491E214099409E40761E164091
:101100003143F0BC00F0D1BE0CED00E0064900F028
:10111000070208684FF6FF03184040EA0220034A1E
:1011200010430860704700000CED00E00000FA0575
:101130002DE9F0418AB0040005D094F8BD0326687B
:10114000002520B108E001200AB0BDE8F08184F854
:10115000BC53204600F05EF8032084F8BD03F06B1A
:10116000C00500D42561206800F048FE04F110019C
:10117000282288466846FFF7EAF894E80F0000F056
:1011800023FD0226C8BB0021206800F05FFE00207E
:1011900001270EE0C0EBC00104EB810181F83D7036
:1011A00001F83C0FC880CD708D60CD60401CC0B28E
:1011B0004D6161688142EDD8002011E0C0EBC001B3
:1011C00004EB810181F8FD5181F8FC0181F8FF51A8
:1011D000C1F80452C1F80852401CC0B2C1F8105204
:1011E00061688142EAD8282241466846FFF7AFF895
:1011F00094E80F0000F048FD10B184F8BD63A2E749
:1012000084F8385084F8BD73206800F02FFD00206A
:101210009AE7000030B587B0044614216846FFF70E
:10122000C8F82068B0F1A04F30D1194800240168F7
:1012300041F0010101600068164D00F001000590C9
:101240004FF4E85000900220CDE901040320039000
:101250000A20049069462846FFF780FD6815CDE90D
:101260000004694628460294FFF778FD0848001DEF
:10127000016841F08001016005481430016841F4C3
:1012800080410160006800F48040059007B030BDE7
:1012900030380240000002402DE9F0470E460500BC
:1012A00063D0DFF81C81D8F80000F7B200F00F001F
:1012B000B04207D288F80070D8F8000000F00F00A4
:1012C000B04252D128683F4C810712D5400703D560
:1012D000206840F4E05020602878000703D520689B
:1012E00040F4604020602068A96820F0F0000843C6
:1012F00020602878C0072BD0324968680839012857
:1013000010D00968022810D0890700292DDA216839
:1013100021F0030101432160FFF76AFE814641F29B
:10132000883A0EE009688903EFE78901EDE700BF1D
:10133000FFF75EFEA0EB0901514502D90320BDE88D
:10134000F0872068696800F00C00B0EB810FEFD1E6
:10135000D8F80010404601F00F01B14207D90770DC
:10136000006800F00F00B04201D00120E7E72878C4
:10137000400705D52068E96820F4E0500843206064
:101380002878000706D52068296920F4604040EAE3
:10139000C100206000F04EF82168F02292FAA2F21B
:1013A00001F0F001B2FA82F2D140074A515CC84024
:1013B0000649086006480068FFF742FE0020BEE7C5
:1013C000003C024008380240841F0008140000203E
:1013D0000C00002008480949006809684FF4E052F1
:1013E00092FAA2F201F4E051B2FA82F2D140044A38
:1013F000515CC840704700001400002008380240CB
:10140000941F000808480949006809684FF46042C1
:1014100092FAA2F201F46041B2FA82F2D140044A97
:10142000515CC8407047000014000020083802409A
:10143000941F0008154810B5006810F00C021448FD
:1014400013D04110042A0FD0082A0ED10F4C241FAC
:101450002268236802F03F025B0207D52068C0F3D0
:101460008810A0FB010106E0084610BD2168C1F309
:101470008811A1FB00010023FEF7F2FE2168C1F3F1
:101480000141491C4900B0FBF1F010BD0838024091
:101490000024F4002DE9F84F04007BD0DFF814B3EA
:1014A0002078ABF10406C007A6F1040536D0DBF8BE
:1014B00000105846C1F38101012907D00068C0F32C
:1014C0008100022809D13068400206D528688003CF
:1014D00024D560680028E0D020E0B6492079891F33
:1014E0000870606868B1FFF783FD074605E000BF3C
:1014F000FFF77EFDC01B642876D828688003F7D5E7
:101500000CE0FFF775FD074605E000BFFFF770FD33
:10151000C01B6428F0D828688003F7D42078DFF84F
:10152000988280074FF0000944D5DBF80010584638
:1015300011F00C0F4FF0F80A07D00068C0F38100DB
:10154000022809D13068400206D42868800715D5E2
:10155000E06801281ED111E0E068E0B10120C8F880
:101560000000FFF745FD074605E000BFFFF740FD1F
:10157000C01B0228C0D828688007F7D528689AFAC7
:10158000AAF22169B2FA82F220F0F80091400843F1
:1015900028600FE00AE1C8F80090FFF729FD074630
:1015A00005E000BFFFF724FDC01B02281CD82868F7
:1015B0008007F7D42078000727D5DFF8F8A17F4807
:1015C00061690AF16C0A81B101210160FFF710FD28
:1015D000074604E0FFF70CFDC01B022804D8DAF828
:1015E00000008007F6D510E082E0C0F80090FFF719
:1015F000FFFC074605E000BFFFF7FAFCC01B02280E
:1016000076D8DAF800008007F6D4207840075FD556
:10161000DFF8A0A100270AF1380ADAF80000C000BC
:101620000BD4DAF8001041F08051CAF80010DAF853
:101630000000012700F0805000906148016841F4EB
:10164000807101600168C90512D4016841F480719C
:101650000160FFF7CDFC009006E000BFFFF7C8FC7B
:101660000099401A02287ED855480068C005F5D573
:101670005049207A68310870A06888B1FFF7B8FC3B
:10168000009007E0FFF7B4FC0099411A41F288305E
:10169000814268D84748683000688007F2D510E07A
:1016A000FFF7A6FC009007E0FFF7A2FC0099411AA3
:1016B00041F28830814256D83E4868300068800741
:1016C000F2D42FB1DAF8001021F08051CAF80010DE
:1016D000A069B8B3DBF80010C1F38101022949D039
:1016E0000228C8F8609004D0FFF782FC04463DE071
:1016F00039E0FFF77DFC074605E000BFFFF778FC07
:10170000C01B64282FD828688001F7D4D4E90701CA
:101710000843616A94F82C20890141EA0261084378
:10172000A16A284A490802EB014108433168264A68
:101730001140084330600120C8F86000FFF758FCF2
:10174000044606E034E000BFFFF752FC001B6428AB
:1017500009D828688001F7D52AE000BFFFF748FCC8
:10176000001B642802D90320BDE8F88F2868800197
:10177000F4D41DE00128F7D03068E26900F480015C
:10178000914213D1226A00F03F0191420ED1616A69
:10179000C0F38812914209D1A26A00F4403191420B
:1017A00004D1E16A00F07060884201D00120DBE7DB
:1017B0000020D9E70838024000004742800E474227
:1017C000007000400000FFFF0080BCF010B5401E1C
:1017D000B0F1807F01D3012010BD4FF0E0246061A3
:1017E0000F21601700F061FB0020A061072020613D
:1017F000002010BD70B5040004D094F83D00002511
:1018000010B106E0012070BD84F83C50204600F085
:1018100023F8242084F83D002068C16821F4005199
:10182000C160204600F03EF92068016921F4904132
:1018300001612068416921F02A0141612068C16885
:1018400041F40051C1602564202084F83D0084F8F3
:101850003E00002070BD000010B586B00446142183
:101860006846FEF7A6FD14492068884221D1134836
:101870000021026842F480220260006800F48020A7
:1018800005900E481038026842F0080202600068B5
:1018900000F0080005904FF4407000900220CDE960
:1018A0000101032003900720049069460448FFF7D4
:1018B00055FA06B010BD0000004800404038024014
:1018C000000C0240FEE700007FB500251A48009595
:1018D0000195029517490395016001244FF4803169
:1018E0000461C0E90115047680F820501349C0E96D
:1018F0000A150226C661C56080F830404461FEF7D3
:10190000A8FF08B172B6FEE7CDE9005469460A485F
:101910000295FEF7F3FE08B172B6FEE70320CDE9AB
:10192000000669460448FEF7E9FE002801D072B6B9
:10193000FEE77FBD00200140180000200100000FDD
:10194000F0B587B014216846FEF733FD3348002414
:10195000016841F004010160016801F00401059192
:10196000016841F080010160016801F0800105918A
:10197000016841F001010160016801F00101059178
:10198000016841F002010160016801F00201059166
:10199000016841F008010160016801F0080105914A
:1019A000016841F04001016000681D4E00F04000F8
:1019B00044F281050590002229463046FFF712FBCC
:1019C000184F002240213846FFF70CFB4FF400501F
:1019D00000904FF48810CDE9010469461248FFF7E2
:1019E000BDF900950125CDE90154694630460394BF
:1019F000FFF7B4F940200090CDE90154694638461C
:101A00000394FFF7ABF98020CDE90004694638461E
:101A10000294FFF7A3F907B0F0BD00003038024090
:101A2000000402400018024000080240FEE7FEE702
:101A300070477047FFF7E2BA30B591B03021684681
:101A4000FEF7B7FC14210CA8FEF7B3FC01200390AD
:101A50000224102004900094002506940D20CDE966
:101A60000750C320CDE9090405200B906846FFF715
:101A700011FD08B172B6FEE70CA90F2081E8310014
:101A80004FF4A0500F904FF48050109003210CA8F9
:101A9000FFF702FC002801D072B6FEE711B030BD9E
:101AA000704700002DE9F041044600680169E268D2
:101AB00021F44051114301612169A068E2690843A2
:101AC0006169114322680843D16849F20C63994364
:101AD0000143D16020684169A26921F4407111433A
:101AE000416137492068884202D03649884202D194
:101AF000FFF788FC01E0FFF76DFC0246E369642014
:101B00003221B3F5004F02EBC20303EB021362680C
:101B10002BD09200B3FBF2F5B5FBF0F5B3FBF2F678
:101B20006FF018077D4306EB8505B3FBF2F601EB7A
:101B30000515B5FBF0F5B6FBF0F605F0F00505EB85
:101B40000615B3FBF2F6B3FBF2F2B2FBF0F27A4306
:101B500006EB820201EB0211B1FBF0F000F00F0086
:101B6000216828448860BDE8F0815200B3FBF2F69A
:101B7000B6FBF0F6B3FBF2F7B3FBF2F56FF0180C1F
:101B800006FB0CF607EB860601EBC606B5FBF0F587
:101B9000B6FBF0F62D0106F0F80605EB4605B3FBA3
:101BA000F2F6B3FBF2F2B2FBF0F202FB0CF206EB40
:101BB000820201EBC201B1FBF0F000F00700CFE7B9
:101BC000001001400014014070B504460699049DC0
:101BD0000D98012915D0E06840F04000E0602046F3
:101BE00000F028F8A16B41F48031A163012D07D1E9
:101BF000A16841F00601A160A16841F02001A16047
:101C000070BDA16B21F48031A163E168084A1140E5
:101C1000E160E16821F44011E160012803D1E0684E
:101C200040F48010E060204600F004F8DEE7000099
:101C3000BFFFBDFF01220C4902E0521C8A420BD8B3
:101C40000369002BF9DA026942F001020261012204
:101C500004E0521C8A4201D9032070470369DB0764
:101C6000F7D1002070470000400D0300D0F8001E9F
:101C700021F00301C0F8001ED0F8041841F0020161
:101C8000C0F80418002070472DE9F04F00250E46DB
:101C90000446DDF82CC0DDF824B0109F2846294604
:101CA00004EB8002C2F80411401C0F28F8D3204630
:101CB000C7B1806B20F40012A263A06B40F4002235
:101CC000A26308468846C4F8000ED4F800182046DF
:101CD000C4F80018BCF1010F16D0D0F8001841F07C
:101CE000030116E0D0F8040840F00202C4F804280A
:101CF000A06B40F40012A263A06B20F40022A26348
:101D0000A06B20F48022DBE7D0F800180BB141F083
:101D10000101C0F80018102100F086F800B101257B
:101D2000204600F071F800B101254046C4F8108843
:101D3000C4F81488C4F81C8800214FF000694FF0E3
:101D4000904A4FF67F3314E004EB4112D2F800C9F9
:101D5000BCF1000F06DA11B1C2F800A904E0C4F822
:101D6000009901E0C2F80009C2F81009C2F8083968
:101D7000491C8E42E8D8002115E000BF04EB411257
:101D8000D2F800CBBCF1000F06DA11B1C2F800ABFB
:101D900004E0C4F8009B01E0C2F8000BC2F8100B8D
:101DA000C2F8083B491C8E42E8D8D4F8101821F438
:101DB0008072C4F81028A0616FF080406061BBF1B0
:101DC000000F03D1A06940F01000A061A06909498B
:101DD0000843A0610C9818B1A06940F00800A06108
:101DE000012F03D1A06904490843A0612846BDE83A
:101DF000F08F000000383C8004000040816821F032
:101E00000101816000207047002110220261054A13
:101E1000491C914201D9032070470369DB06F7D4BE
:101E200000207047400D03000022202343EA811167
:101E300001610549521C8A4201D903207047036998
:101E40009B06F7D400207047400D030070B5044690
:101E5000C068002520F0C040E060012901D079B1C0
:101E600020E0E06840F00050E0600120FEF764FFF1
:101E700060696D1C10F0010F10D1322DF5D30DE00B
:101E8000E06840F08040E0600120FEF755FF6069A7
:101E90006D1C10F0010F01D0322DF5D3322D01D081
:101EA000002070BD012070BDFEE70907090E002863
:101EB00004DB00F1E02080F80014704700F00F0010
:101EC00000F1E02080F8141D7047000008B5FFF70E
:101ED0009DF8FFF7B1FDFFF733FD244800240168AA
:101EE00041F4800101600068224600F48000009007
:101EF00021463820FFF7EAF83820FFF7D9F81C48C8
:101F00004FF0A0410160042141600221C0E90314A7
:101F100081610121C0E90714C0E90B14FFF708F93A
:101F200008B172B6FEE7FFF7CFFC114811494438FB
:101F300001604FF4E131C0E901140C21C460C0E933
:101F400004418461C461FFF755FC08B172B6FEE735
:101F50000748022208498C38FEF7F4FC064A101F95
:101F60001188528801804280FCE70000303802402E
:101F7000A4000020004800400400002000061016C5
:101F8000000610160000000000000000010203041B
:101F9000060708090000000001020304BC1F000836
:101FA0000000002018000000C0010008D41F000835
:101FB00018000020500B0000DC01000800000000A9
:101FC0000000000001000000100000000000000000
:041FD0000024F400F5
:040000050800018569
:00000001FF
