:020000040800F2
:10000000B80A002021020008FB110008B510000802
:10001000F91100087B0400087516000800000000B4
:1000200000000000000000000000000001120008B5
:100030007D04000800000000FD1100080312000804
:100040003B0200083B0200083B0200083B0200089C
:100050003B020008FF1100087F0400088504000827
:100060008B0400083B0200083B0200083B0200082A
:100070003B0200083B0200083B0200083B0200086C
:100080003B0200083B0200083B0200083B0200085C
:100090003B0200083B0200083B0200083B0200084C
:1000A0003B0200083B0200083B0200083B0200083C
:1000B0003B0200083B0200083B0200083B0200082C
:1000C0003B0200083B0200083B0200083B0200081C
:1000D0003B0200083B0200083B0200083B0200080C
:1000E0003B0200083B0200083B0200083B020008FC
:1000F0003B0200083B0200083B0200083B020008EC
:100100003B0200083B0200083B0200083B020008DB
:100110003B0200083B0200083B0200083B020008CB
:100120003B0200083B0200083B0200083B020008BB
:100130003B0200083B0200083B0200083B020008AB
:100140003B0200083B0200083B0200083B0200089B
:100150003B0200083B0200083B0200083B0200088B
:100160003B0200083B0200083B0200083B0200087B
:100170003B0200083B0200083B02000800000000B0
:100180003B02000800F002F800F03AF80AA090E8FC
:10019000000C82448344AAF10107DA4501D100F042
:1001A0002FF8AFF2090EBAE80F0013F0010F18BFD5
:1001B000FB1A43F00103184760150000801500008A
:1001C000103A24BF78C878C1FAD8520724BF30C883
:1001D00030C144BF04680C60704700000023002455
:1001E00000250026103A28BF78C1FBD8520728BF47
:1001F00030C148BF0B6070471FB51FBD10B510BDA3
:1002000000F001F91146FFF7F7FF01F045FA00F0A1
:100210001FF903B4FFF7F2FF03BC00F027F9000059
:100220000948804709480047FEE7FEE7FEE7FEE78A
:10023000FEE7FEE7FEE7FEE7FEE7FEE704480549C6
:10024000054A064B704700006F1200088501000840
:10025000B8040020B80A0020B8060020B806002024
:1002600053EA020C00F069802DE9F04B4FF00006D4
:10027000002B1FBFB3FA83F503FA05F424FA05F641
:100280005E4012BF1643B2FA82F502FA05F4C5F1D8
:1002900020051EBF22FA05FC44EA0C04203556EA6C
:1002A000044C4FEA144418BF641C4FF000084FF090
:1002B0000009904271EB030C39D3002919BFB1FA40
:1002C00081F701FA07F6B0FA80F700FA07F6C7F1EE
:1002D00020071EBF20FA07FC46EA0C062037B6FBB3
:1002E000F4FCA7EB0507103F07F01F0BCBF120062E
:1002F0000CFA0BFB2CFA06F644BFB3460026202F5F
:10030000A4BF5E464FF0000B5BEA060C08BF4FF03F
:10031000010B19EB0B09ABFB027C48EB0608C01B79
:1003200006FB02CC0BFB03CC71EB0C01C1E70B46C7
:10033000024641464846BDE8F08B13B54FF0000039
:100340004FF00001AFF30080BDE81C40704710B5CE
:10035000203AC0F00B80B1E81850203AA0E81850BD
:10036000B1E81850A0E81850BFF4F5AF5FEA027C7E
:1003700024BFB1E81850A0E8185044BF18C918C0ED
:10038000BDE810405FEA827C24BF51F8043B40F88E
:10039000043B08BF7047D20728BF31F8023B48BF73
:1003A00011F8012B28BF20F8023B48BF00F8012BB1
:1003B00070474FF0000200B5134694469646203928
:1003C00022BFA0E80C50A0E80C50B1F12001BFF40E
:1003D000F7AF090728BFA0E80C5048BF0CC05DF874
:1003E00004EB890028BF40F8042B08BF704748BFC2
:1003F00020F8022B11F0804F18BF00F8012B704736
:10040000704770477047754600F02CF8AE460500FF
:100410006946534620F00700854618B020B5FFF71F
:100420000DFFBDE820404FF000064FF000074FF0F1
:1004300000084FF0000B21F00701AC46ACE8C00902
:10044000ACE8C009ACE8C009ACE8C0098D4670470B
:1004500010B50446AFF300802046BDE81040FFF71A
:10046000D8BE0000004870475404002001491820FD
:10047000ABBEFEE7260002007047FEE77047012092
:1004800000F03CB8022000F039B8042000F036B883
:1004900031B500F095F9009C0546601C02D0044877
:1004A0000078044400F08CF9401BA042FAD338BD18
:1004B0000000002070B50F4C0121204600F06EF9BD
:1004C0000D4D08B101210EE00221204600F066F931
:1004D00008B1802107E00421204600F05FF90028E0
:1004E00006D04FF480412846BDE8704000F05BB96B
:1004F00070BD00000014024000040240044910B521
:100500000A68024202D00860FFF7D4FF10BD000065
:10051000143C01402DE9F04FDFF85092002309F11F
:10052000040A012603250AF1040B85B00F270BF1FD
:10053000040E12E1224606FA03F422407ED091F81E
:1005400004C00CF0030CBCF1010F02D0BCF1020F8F
:1005500026D1D0F80880CDF800804FEA430805FA8C
:1005600008FCCDF81080DDF8008028EA0C08CDF8F2
:100570000080D1F80CC0DDF810800CFA08FCDDF822
:1005800000804CEA080CC0F808C0D0F804C02CEA7F
:10059000040C0C79C4F300149C4044EA0C0444603D
:1005A0000C79E443A40712D0C4684FEA430CCDF899
:1005B00008C005FA0CFC24EA0C04D1F80880DDF828
:1005C00008C008FA0CF848EA0408C0F80C800C7956
:1005D00004F00304022C16D1DC0800EB840CCDF8E7
:1005E00008C0DCF820C05C074FEAD46807FA08F4BA
:1005F0002CEA040C0C6904FA08F444EA0C04DDF853
:1006000008C0CCF8204004684FEA430805FA08FC0B
:1006100024EA0C0491F804C00CF0030C0CFA08FC5A
:100620004CEA040CC0F800C04C6814F4403F05D0FC
:100630004F4CD4F800C04CF4804C00E08CE0C4F87F
:1006400000C0246823F0030C04F480440094494C57
:1006500064440294D4F808484FEA837C4FEA1C783B
:1006600007FA08FC24EA0C04DFF80CC1604502D14B
:100670004FF0000C39E0DFF804C1604502D14FF0C3
:10068000010C32E0DFF8F8C0604502D14FF0020CF7
:100690002BE0DFF8F0C0604502D14FF0030C24E0FE
:1006A000DFF8E4C0604502D14FF0040C1DE0DFF834
:1006B000DCC0604502D14FF0050C16E0DFF8D0C079
:1006C000604502D14FF0060C0FE0DFF8C8C060456E
:1006D00002D14FF0070C08E0DFF8BCC0604502D142
:1006E0004FF0080C01E04FF0090C0CFA08FC4CEA42
:1006F000040C029CC4F808C8D9F80040CC46D1F8D4
:10070000048094435FEAC83800D51443CCF8004015
:10071000DAF80040D446D1F8048094435FEA883880
:1007200000D51443CCF80040DBF80040DC46D1F89B
:10073000048094435FEAC82800D51443CCF80040F5
:10074000DEF80040F446D1F8048094435FEA88283C
:1007500000D51443CCF800405B1C0A681446DA400C
:100760007FF4E8AE05B0BDE8F08F0000003C01402A
:1007700044380240003001400000024000040240C2
:1007800000080240000C0240001002400014024029
:1007900000180240001C024000200240006908408E
:1007A00000D001207047426921EA02030A4043EA6F
:1007B0000241816170470AB1816170470904FBE71A
:1007C00001488068704700000000002002488168EE
:1007D0000278114481607047000000200B4810B57A
:1007E000016841F400710160016841F480610160B9
:1007F000016841F480710160032000F07FF800205F
:1008000000F006F800F024F8002010BD003C024083
:1008100070B50D4D04464FF47A712878B1FBF0F0B5
:100820000A490968B1FBF0F000F0C8FB48B9102C88
:1008300007D200222146501E00F040F800206C60D4
:1008400070BD012070BD0000000000200C000020E1
:10085000124808B5016841F480410160006800F465
:10086000804000900D48001F016841F080510160F8
:100870000068002200F0805000901146052000F032
:100880001DF8052000F00CF800221146052000F0AC
:1008900015F8BDE80840052000F002B844380240D1
:1008A000002809DB00F01F0201219140400980006F
:1008B00000F1E020C0F8001170470000F0B40E4BCA
:1008C0001B680C46C3F30223C3F10705042D00D9AE
:1008D0000425191D072901D2002300E0DB1E012693
:1008E00006FA05F1491E214099409E40761E1640A9
:1008F0003143F0BC00F0BFBE0CED00E0064900F053
:10090000070208684FF6FF03184040EA0220034A36
:1009100010430860704700000CED00E00000FA058D
:100920002DE9F0418AB0040005D094F8BD03266893
:10093000002520B108E001200AB0BDE8F08184F86C
:10094000BC53204600F05EF8032084F8BD03F06B32
:10095000C00500D42561206800F036FE04F11001C6
:10096000282288466846FFF7F2FC94E80F0000F062
:1009700011FD0226C8BB0021206800F04DFE0020BA
:1009800001270EE0C0EBC00104EB810181F83D704E
:1009900001F83C0FC880CD708D60CD60401CC0B2A6
:1009A0004D6161688142EDD8002011E0C0EBC001CB
:1009B00004EB810181F8FD5181F8FC0181F8FF51C0
:1009C000C1F80452C1F80852401CC0B2C1F810521C
:1009D00061688142EAD8282241466846FFF7B7FCA1
:1009E00094E80F0000F036FD10B184F8BD63A2E773
:1009F00084F8385084F8BD73206800F01DFD002095
:100A00009AE7000030B587B0044614216846FFF726
:100A1000D0FC2068B0F1A04F30D119480024016803
:100A200041F0010101600068164D00F001000590E1
:100A30004FF4E85000900220CDE901040320039018
:100A40000A20049069462846FFF764FD6815CDE941
:100A50000004694628460294FFF75CFD0848001D23
:100A6000016841F08001016005481430016841F4DB
:100A700080410160006800F48040059007B030BDFF
:100A800030380240000002402DE9F0470E460500D4
:100A900063D0DFF81C81D8F80000F7B200F00F0037
:100AA000B04207D288F80070D8F8000000F00F00BC
:100AB000B04252D128683F4C810712D5400703D578
:100AC000206840F4E05020602878000703D52068B3
:100AD00040F4604020602068A96820F0F0000843DE
:100AE00020602878C0072BD032496868083901286F
:100AF00010D00968022810D0890700292DDA216852
:100B000021F0030101432160FFF75AFE814641F2C3
:100B1000883A0EE009688903EFE78901EDE700BF35
:100B2000FFF74EFEA0EB0901514502D90320BDE8B5
:100B3000F0872068696800F00C00B0EB810FEFD1FE
:100B4000D8F80010404601F00F01B14207D90770F4
:100B5000006800F00F00B04201D00120E7E72878DC
:100B6000400705D52068E96820F4E050084320607C
:100B70002878000706D52068296920F4604040EAFB
:100B8000C100206000F04EF82168F02292FAA2F233
:100B900001F0F001B2FA82F2D140074A515CC8403C
:100BA0000649086006480068FFF732FE0020BEE7ED
:100BB000003C024008380240001700080C000020EA
:100BC0000400002008480949006809684FF4E05211
:100BD00092FAA2F201F4E051B2FA82F2D140044A50
:100BE000515CC840704700000C00002008380240EB
:100BF0001017000808480949006809684FF4604266
:100C000092FAA2F201F46041B2FA82F2D140044AAF
:100C1000515CC840704700000C00002008380240BA
:100C200010170008154810B5006810F00C021448A1
:100C300013D04110042A0FD0082A0ED10F4C241FC4
:100C40002268236802F03F025B0207D52068C0F3E8
:100C50008810A0FB010106E0084610BD2168C1F321
:100C60008811A1FB00010023FFF7FAFA2168C1F304
:100C70000141491C4900B0FBF1F010BD08380240A9
:100C80000024F4002DE9F84F04007BD0DFF814B302
:100C90002078ABF10406C007A6F1040536D0DBF8D6
:100CA00000105846C1F38101012907D00068C0F344
:100CB0008100022809D13068400206D528688003E7
:100CC00024D560680028E0D020E0B6492079891F4B
:100CD0000870606868B1FFF773FD074605E000BF64
:100CE000FFF76EFDC01B642876D828688003F7D50F
:100CF0000CE0FFF765FD074605E000BFFFF760FD6C
:100D0000C01B6428F0D828688003F7D42078DFF867
:100D1000988280074FF0000944D5DBF80010584650
:100D200011F00C0F4FF0F80A07D00068C0F38100F3
:100D3000022809D13068400206D42868800715D5FA
:100D4000E06801281ED111E0E068E0B10120C8F898
:100D50000000FFF735FD074605E000BFFFF730FD57
:100D6000C01B0228C0D828688007F7D528689AFADF
:100D7000AAF22169B2FA82F220F0F8009140084309
:100D800028600FE00AE1C8F80090FFF719FD074658
:100D900005E000BFFFF714FDC01B02281CD828681F
:100DA0008007F7D42078000727D5DFF8F8A17F481F
:100DB00061690AF16C0A81B101210160FFF700FD50
:100DC000074604E0FFF7FCFCC01B022804D8DAF851
:100DD00000008007F6D510E082E0C0F80090FFF731
:100DE000EFFC074605E000BFFFF7EAFCC01B022846
:100DF00076D8DAF800008007F6D4207840075FD56F
:100E0000DFF8A0A100270AF1380ADAF80000C000D4
:100E10000BD4DAF8001041F08051CAF80010DAF86B
:100E20000000012700F0805000906148016841F403
:100E3000807101600168C90512D4016841F48071B4
:100E40000160FFF7BDFC009006E000BFFFF7B8FCB3
:100E50000099401A02287ED855480068C005F5D58B
:100E60005049207A68310870A06888B1FFF7A8FC63
:100E7000009007E0FFF7A4FC0099411A41F2883086
:100E8000814268D84748683000688007F2D510E092
:100E9000FFF796FC009007E0FFF792FC0099411ADB
:100EA00041F28830814256D83E4868300068800759
:100EB000F2D42FB1DAF8001021F08051CAF80010F6
:100EC000A069B8B3DBF80010C1F38101022949D051
:100ED0000228C8F8609004D0FFF772FC04463DE099
:100EE00039E0FFF76DFC074605E000BFFFF768FC3F
:100EF000C01B64282FD828688001F7D4D4E90701E3
:100F00000843616A94F82C20890141EA0261084390
:100F1000A16A284A490802EB014108433168264A80
:100F20001140084330600120C8F86000FFF748FC1A
:100F3000044606E034E000BFFFF742FC001B6428D3
:100F400009D828688001F7D52AE000BFFFF738FCF0
:100F5000001B642802D90320BDE8F88F28688001AF
:100F6000F4D41DE00128F7D03068E26900F4800174
:100F7000914213D1226A00F03F0191420ED1616A81
:100F8000C0F38812914209D1A26A00F44031914223
:100F900004D1E16A00F07060884201D00120DBE7F3
:100FA0000020D9E70838024000004742800E47423F
:100FB000007000400000FFFF0080BCF010B5401E34
:100FC000B0F1807F01D3012010BD4FF0E0246061BB
:100FD0000F21601700F04FFB0020A0610720206167
:100FE000002010BD70B5040004D094F83D00002529
:100FF00010B106E0012070BD84F83C50204600F09E
:1010000023F8242084F83D002068C16821F40051B1
:10101000C160204600F02CF92068016921F490415C
:1010200001612068416921F02A0141612068C1689D
:1010300041F40051C1602564202084F83D0084F80B
:101040003E00002070BD000010B586B0044614219B
:101050006846FFF7AEF914492068884221D1134849
:101060000021026842F480220260006800F48020BF
:1010700005900E481038026842F0080202600068CD
:1010800000F0080005904FF4407000900220CDE978
:101090000101032003900720049069460448FFF7EC
:1010A00039FA06B010BD0000004800404038024048
:1010B000000C0240FEE70000F0B587B0142168463E
:1010C000FFF777F947480024016841F00401016007
:1010D000016801F004010591016841F020010160FF
:1010E000016801F020010591016841F08001016073
:1010F000016801F080010591016841F00101016082
:10110000016801F001010591016841F002010160EF
:10111000016801F002010591016841F008010160D8
:10112000016801F008010591016841F0400101608A
:1011300000682D4E00F0400044F281050590012228
:1011400029463046FFF737FB284F0022402138461A
:10115000FFF731FB4FF40050CDE900046946244805
:101160000294FFF7D7F9072000904FF48810019000
:101170000220029069461F48FFF7CCF9009501252F
:10118000CDE90154694630460394FFF7C3F9402086
:101190000090CDE90154694638460394FFF7BAF947
:1011A0008020CDE90004694638460294FFF7B2F981
:1011B000002211460620FFF781FB0620FFF770FB97
:1011C000002211460720FFF779FB0720FFF768FB95
:1011D000002211460820FFF771FB0820FFF760FB93
:1011E00007B0F0BD30380240000402400018024051
:1011F0000008024000140240FEE7FEE77047704717
:101200007047FFF7E3BA30B591B030216846FFF779
:10121000D0F814210CA8FFF7CCF801200390022489
:10122000102004900094002506940D20CDE907506D
:10123000C320CDE9090405200B906846FFF722FD85
:1012400008B172B6FEE70CA90F2081E831004FF417
:10125000A0500F904FF48050109003210CA8FFF77E
:1012600013FC002801D072B6FEE711B030BD704704
:101270002DE9F041044600680169E26821F440511B
:10128000114301612169A068E26908436169114362
:1012900022680843D16849F20C6399430143D16045
:1012A00020684169A26921F44071114341613749C5
:1012B0002068884202D03649884202D1FFF79AFC62
:1012C00001E0FFF77FFC0246E36964203221B3F5B9
:1012D000004F02EBC20303EB021362682BD09200B3
:1012E000B3FBF2F5B5FBF0F5B3FBF2F66FF01807C0
:1012F0007D4306EB8505B3FBF2F601EB0515B5FB67
:10130000F0F5B6FBF0F605F0F00505EB0615B3FBBE
:10131000F2F6B3FBF2F2B2FBF0F27A4306EB820292
:1013200001EB0211B1FBF0F000F00F00216828443E
:101330008860BDE8F0815200B3FBF2F6B6FBF0F630
:10134000B3FBF2F7B3FBF2F56FF0180C06FB0CF6EB
:1013500007EB860601EBC606B5FBF0F5B6FBF0F62B
:101360002D0106F0F80605EB4605B3FBF2F6B3FBDC
:10137000F2F2B2FBF0F202FB0CF206EB820201EB9E
:10138000C201B1FBF0F000F00700CFE70010014010
:101390000014014070B504460699049D0D9801297A
:1013A00015D0E06840F04000E060204600F028F8EA
:1013B000A16B41F48031A163012D07D1A16841F0F7
:1013C0000601A160A16841F02001A16070BDA16B80
:1013D00021F48031A163E168084A1140E160E168CD
:1013E00021F44011E160012803D1E06840F480104D
:1013F000E060204600F004F8DEE70000BFFFBDFF1C
:1014000001220C4902E0521C8A420BD80369002BCE
:10141000F9DA026942F001020261012204E0521C81
:101420008A4201D9032070470369DB07F7D1002006
:1014300070470000400D0300D0F8001E21F00301AA
:10144000C0F8001ED0F8041841F00201C0F80418DA
:10145000002070472DE9F04F00250E460446DDF8C8
:101460002CC0DDF824B0109F2846294604EB8002EA
:10147000C2F80411401C0F28F8D32046C7B1806B76
:1014800020F40012A263A06B40F40022A26308467D
:101490008846C4F8000ED4F800182046C4F8001896
:1014A000BCF1010F16D0D0F8001841F0030116E08E
:1014B000D0F8040840F00202C4F80428A06B40F4FD
:1014C0000012A263A06B20F40022A263A06B20F4A0
:1014D0008022DBE7D0F800180BB141F00101C0F821
:1014E0000018102100F086F800B10125204600F018
:1014F00071F800B101254046C4F81088C4F814887A
:10150000C4F81C8800214FF000694FF0904A4FF654
:101510007F3314E004EB4112D2F800C9BCF1000F94
:1015200006DA11B1C2F800A904E0C4F8009901E09C
:10153000C2F80009C2F81009C2F80839491C8E42E5
:10154000E8D8002115E000BF04EB4112D2F800CB2F
:10155000BCF1000F06DA11B1C2F800AB04E0C4F828
:10156000009B01E0C2F8000BC2F8100BC2F8083B68
:10157000491C8E42E8D8D4F8101821F48072C4F8BF
:101580001028A0616FF080406061BBF1000F03D1B3
:10159000A06940F01000A061A06909490843A0615A
:1015A0000C9818B1A06940F00800A061012F03D188
:1015B000A06904490843A0612846BDE8F08F0000F7
:1015C00000383C8004000040816821F00101816006
:1015D00000207047002110220261054A491C9142F7
:1015E00001D9032070470369DB06F7D40020704758
:1015F000400D03000022202343EA811101610549C7
:10160000521C8A4201D90320704703699B06F7D414
:1016100000207047400D030070B50446C0680025E7
:1016200020F0C040E060012901D079B120E0E068FD
:1016300040F00050E0600120FEF72AFF60696D1C59
:1016400010F0010F10D1322DF5D30DE0E06840F01D
:101650008040E0600120FEF71BFF60696D1C10F008
:10166000010F01D0322DF5D3322D01D0002070BDF5
:10167000012070BDFEE70907090E002804DB00F118
:10168000E02080F80014704700F00F0000F1E02027
:1016900080F8141D70470000FFF7A0F8FFF7B3FDB6
:1016A000FFF70AFD15481449002401604FF4E131A9
:1016B000C0E901140C21C460C0E904418461C46123
:1016C000FFF790FC08B172B6FEE70C484FF0A0415E
:1016D00044300160042141600221C0E903148161AA
:1016E0000121C0E90714C0E90B14FFF719F908B18B
:1016F00072B6FEE7FEE70000004800401000002040
:1017000000000000000000000102030406070809B1
:101710000000000001020304381700080000002048
:1017200010000000C0010008481700081000002049
:10173000A80A0000DC010008010000001000000001
:08174000000000000024F40089
:040000050800018569
:00000001FF
