:020000040800F2
:1000000088060020210200082B0F0008390E000886
:10001000290F0008170400089F0F000800000000C7
:100020000000000000000000000000002F0F00088A
:1000300019040008000000002D0F0008310F00080F
:100040003B0200083B0200083B0200083B0200089C
:100050003B0200083B0200083B0200083B0200088C
:100060003B0200083B0200083B0200083B0200087C
:100070003B0200083B0200083B0200083B0200086C
:100080003B0200083B0200083B0200083B0200085C
:100090003B0200083B0200083B0200083B0200084C
:1000A0003B0200083B0200083B0200083B0200083C
:1000B0003B0200083B0200083B0200083B0200082C
:1000C0003B0200083B0200083B0200083B0200081C
:1000D0003B0200083B0200083B0200083B0200080C
:1000E0003B0200083B0200083B0200083B020008FC
:1000F0003B0200083B0200083B0200083B020008EC
:100100003B0200083B0200083B0200083B020008DB
:100110003B0200083B0200083B0200083B020008CB
:100120003B0200083B0200083B0200083B020008BB
:100130003B0200083B0200083B0200083B020008AB
:100140003B0200083B0200083B0200083B0200089B
:100150003B0200083B0200083B0200083B0200088B
:100160003B0200083B0200083B0200083B0200087B
:100170003B0200083B0200083B02000800000000B0
:100180003B02000800F002F800F03AF80AA090E8FC
:10019000000C82448344AAF10107DA4501D100F042
:1001A0002FF8AFF2090EBAE80F0013F0010F18BFD5
:1001B000FB1A43F001031847B00E0000D00E0000F8
:1001C000103A24BF78C878C1FAD8520724BF30C883
:1001D00030C144BF04680C60704700000023002455
:1001E00000250026103A28BF78C1FBD8520728BF47
:1001F00030C148BF0B6070471FB51FBD10B510BDA3
:1002000000F0CFF81146FFF7F7FF00F0D9FE00F03D
:10021000EDF803B4FFF7F2FF03BC00F0F5F80000BF
:100220000948804709480047FEE7FEE7FEE7FEE78A
:10023000FEE7FEE7FEE7FEE7FEE7FEE704480549C6
:10024000054A064B704700009D0F00088501000815
:1002500088000020880600208802002088020020F4
:1002600053EA020C00F069802DE9F04B4FF00006D4
:10027000002B1FBFB3FA83F503FA05F424FA05F641
:100280005E4012BF1643B2FA82F502FA05F4C5F1D8
:1002900020051EBF22FA05FC44EA0C04203556EA6C
:1002A000044C4FEA144418BF641C4FF000084FF090
:1002B0000009904271EB030C39D3002919BFB1FA40
:1002C00081F701FA07F6B0FA80F700FA07F6C7F1EE
:1002D00020071EBF20FA07FC46EA0C062037B6FBB3
:1002E000F4FCA7EB0507103F07F01F0BCBF120062E
:1002F0000CFA0BFB2CFA06F644BFB3460026202F5F
:10030000A4BF5E464FF0000B5BEA060C08BF4FF03F
:10031000010B19EB0B09ABFB027C48EB0608C01B79
:1003200006FB02CC0BFB03CC71EB0C01C1E70B46C7
:10033000024641464846BDE8F08B13B54FF0000039
:100340004FF00001AFF30080BDE81C4070474FF054
:10035000000200B5134694469646203922BFA0E815
:100360000C50A0E80C50B1F12001BFF4F7AF090721
:1003700028BFA0E80C5048BF0CC05DF804EB890012
:1003800028BF40F8042B08BF704748BF20F8022B55
:1003900011F0804F18BF00F8012B7047704770476D
:1003A0007047754600F02CF8AE4605006946534686
:1003B00020F00700854618B020B5FFF73FFFBDE8E5
:1003C00020404FF000064FF000074FF000084FF0BC
:1003D000000B21F00701AC46ACE8C009ACE8C0094D
:1003E000ACE8C009ACE8C0098D46704710B50446BA
:1003F000AFF300802046BDE81040FFF70ABF0000C1
:10040000004870472400002001491820ABBEFEE7D9
:10041000260002007047FEE7704770B54379012B54
:100420001CD0012646710223037105682B6802F077
:10043000100440F6FE72A2409343D1E900210A4322
:10044000A2401A432A6001680A68C023A3409A4365
:100450000A60067100214171084670BD022070BD1E
:1004600070B5040003D02079002510B105E001200B
:1004700070BD6571204600F007F8022020712561EB
:1004800001202071002070BD10B586B004461421F3
:100490006846FFF75CFF1149206888421CD110486C
:1004A0000021026842F000520260006800F0005033
:1004B00005900B481038026842F0010202600068A3
:1004C00000F001000590302000900320CDE90101EB
:1004D0006946044800F056F806B010BD00740040AC
:1004E000403802400000024018B5046800940068DB
:1004F000104421B1143000900360002018BD083072
:10050000F9E770B54279012A1ED001224271022317
:1005100003710468266801F0100302FA03F52E4304
:1005200026600029016811D00C6804F470153C2481
:100530009C40A54203D14B6843F002034B6002711B
:1005400000214171084670BD022070BD0B68C3F3E5
:1005500083030F2BF3D14B6843F00103EEE7000058
:1005600031B500F059F9009C0546601C02D00448E2
:100570000078044400F050F9401BA042FAD338BD83
:10058000000000202DE9F04FDFF85092002309F120
:10059000040A012603250AF1040B85B00F270BF18D
:1005A000040E12E1224606FA03F422407ED091F8AE
:1005B00004C00CF0030CBCF1010F02D0BCF1020F1F
:1005C00026D1D0F80880CDF800804FEA430805FA1C
:1005D00008FCCDF81080DDF8008028EA0C08CDF882
:1005E0000080D1F80CC0DDF810800CFA08FCDDF8B2
:1005F00000804CEA080CC0F808C0D0F804C02CEA0F
:10060000040C0C79C4F300149C4044EA0C044460CC
:100610000C79E443A40712D0C4684FEA430CCDF828
:1006200008C005FA0CFC24EA0C04D1F80880DDF8B7
:1006300008C008FA0CF848EA0408C0F80C800C79E5
:1006400004F00304022C16D1DC0800EB840CCDF876
:1006500008C0DCF820C05C074FEAD46807FA08F449
:100660002CEA040C0C6904FA08F444EA0C04DDF8E2
:1006700008C0CCF8204004684FEA430805FA08FC9B
:1006800024EA0C0491F804C00CF0030C0CFA08FCEA
:100690004CEA040CC0F800C04C6814F4403F05D08C
:1006A0004F4CD4F800C04CF4804C00E08CE0C4F80F
:1006B00000C0246823F0030C04F480440094494CE7
:1006C00064440294D4F808484FEA837C4FEA1C78CB
:1006D00007FA08FC24EA0C04DFF80CC1604502D1DB
:1006E0004FF0000C39E0DFF804C1604502D14FF053
:1006F000010C32E0DFF8F8C0604502D14FF0020C87
:100700002BE0DFF8F0C0604502D14FF0030C24E08D
:10071000DFF8E4C0604502D14FF0040C1DE0DFF8C3
:10072000DCC0604502D14FF0050C16E0DFF8D0C008
:10073000604502D14FF0060C0FE0DFF8C8C06045FD
:1007400002D14FF0070C08E0DFF8BCC0604502D1D1
:100750004FF0080C01E04FF0090C0CFA08FC4CEAD1
:10076000040C029CC4F808C8D9F80040CC46D1F863
:10077000048094435FEAC83800D51443CCF80040A5
:10078000DAF80040D446D1F8048094435FEA883810
:1007900000D51443CCF80040DBF80040DC46D1F82B
:1007A000048094435FEAC82800D51443CCF8004085
:1007B000DEF80040F446D1F8048094435FEA8828CC
:1007C00000D51443CCF800405B1C0A681446DA409C
:1007D0007FF4E8AE05B0BDE8F08F0000003C0140BA
:1007E0004438024000300140000002400004024052
:1007F00000080240000C02400010024000140240B9
:1008000000180240001C0240002002400AB1816131
:1008100070470904FBE7000001488068704700004A
:10082000000000200248816802781144816070470E
:10083000000000200B4810B5016841F40071016010
:10084000016841F480610160016841F480710160D8
:10085000032000F061F8002000F006F800F024F812
:10086000002010BD003C024070B50D4D04464FF411
:100870007A712878B1FBF0F00A490968B1FBF0F011
:1008800000F0C6FA48B9102C07D200222146501EAB
:1008900000F022F800206C6070BD012070BD0000E7
:1008A000000000200C0000200A4808B5016841F44F
:1008B00080410160006800F4804000900548001FFE
:1008C000016841F080510160006800F080500090A4
:1008D00008BD000044380240F0B40E4B1B680C46C3
:1008E000C3F30223C3F10705042D00D90425191D04
:1008F000072901D2002300E0DB1E012606FA05F1DC
:10090000491E214099409E40761E16403143F0BC5E
:1009100000F046BB0CED00E0064900F00702086855
:100920004FF6FF03184040EA0220034A10430860D4
:10093000704700000CED00E00000FA052DE9F047DB
:100940000E46050063D0DFF81C81D8F80000F7B22E
:1009500000F00F00B04207D288F80070D8F800000D
:1009600000F00F00B04252D128683F4C810712D5E9
:10097000400703D5206840F4E05020602878000745
:1009800003D5206840F4604020602068A96820F00A
:10099000F000084320602878C0072BD032496868EF
:1009A0000839012810D00968022810D089070029C9
:1009B0002DDA216821F0030101432160FFF72CFFAC
:1009C000814641F2883A0EE009688903EFE7890120
:1009D000EDE700BFFFF720FFA0EB0901514502D969
:1009E0000320BDE8F0872068696800F00C00B0EBD8
:1009F000810FEFD1D8F80010404601F00F01B1424D
:100A000007D90770006800F00F00B04201D0012044
:100A1000E7E72878400705D52068E96820F4E0502A
:100A2000084320602878000706D52068296920F44B
:100A3000604040EAC100206000F01EF82168F0220A
:100A400092FAA2F201F0F001B2FA82F2D140074A22
:100A5000515CC8400649086006480068FFF704FF7B
:100A60000020BEE7003C0240083802405810000851
:100A70000C00002004000020154810B5006810F09C
:100A80000C02144813D04110042A0FD0082A0ED1AA
:100A90000F4C241F2268236802F03F025B0207D537
:100AA0002068C0F38810A0FB010106E0084610BDD5
:100AB0002168C1F38811A1FB00010023FFF7D0FBDF
:100AC0002168C1F30141491C4900B0FBF1F010BDA0
:100AD000083802400024F4002DE9F84F04007BD0D0
:100AE000DFF814B32078ABF10406C007A6F10405C3
:100AF00036D0DBF800105846C1F38101012907D038
:100B00000068C0F38100022809D13068400206D590
:100B10002868800324D560680028E0D020E0B6492A
:100B20002079891F0870606868B1FFF775FE074675
:100B300005E000BFFFF770FEC01B642876D8286868
:100B40008003F7D50CE0FFF767FE074605E000BF1E
:100B5000FFF762FEC01B6428F0D828688003F7D432
:100B60002078DFF8988280074FF0000944D5DBF841
:100B70000010584611F00C0F4FF0F80A07D000682B
:100B8000C0F38100022809D13068400206D42868E9
:100B9000800715D5E06801281ED111E0E068E0B1BA
:100BA0000120C8F80000FFF737FE074605E000BF48
:100BB000FFF732FEC01B0228C0D828688007F7D58F
:100BC00028689AFAAAF22169B2FA82F220F0F800B3
:100BD0009140084328600FE00AE1C8F80090FFF751
:100BE0001BFE074605E000BFFFF716FEC01B0228EC
:100BF0001CD828688007F7D42078000727D5DFF8AD
:100C0000F8A17F4861690AF16C0A81B10121016094
:100C1000FFF702FE074604E0FFF7FEFDC01B0228B7
:100C200004D8DAF800008007F6D510E082E0C0F8BA
:100C30000090FFF7F1FD074605E000BFFFF7ECFD70
:100C4000C01B022876D8DAF800008007F6D4207896
:100C500040075FD5DFF8A0A100270AF1380ADAF8CB
:100C60000000C0000BD4DAF8001041F08051CAF83F
:100C70000010DAF80000012700F080500090614871
:100C8000016841F4807101600168C90512D40168EE
:100C900041F480710160FFF7BFFD009006E000BFE6
:100CA000FFF7BAFD0099401A02287ED8554800681F
:100CB000C005F5D55049207A68310870A06888B120
:100CC000FFF7AAFD009007E0FFF7A6FD0099411A83
:100CD00041F28830814268D8474868300068800710
:100CE000F2D510E0FFF798FD009007E0FFF794FDC4
:100CF0000099411A41F28830814256D83E48683006
:100D000000688007F2D42FB1DAF8001021F080518A
:100D1000CAF80010A069B8B3DBF80010C1F3810174
:100D2000022949D00228C8F8609004D0FFF774FD6A
:100D300004463DE039E0FFF76FFD074605E000BFE0
:100D4000FFF76AFDC01B64282FD828688001F7D4FC
:100D5000D4E907010843616A94F82C20890141EA2B
:100D600002610843A16A284A490802EB014108438D
:100D70003168264A1140084330600120C8F86000FD
:100D8000FFF74AFD044606E034E000BFFFF744FDEC
:100D9000001B642809D828688001F7D52AE000BF25
:100DA000FFF73AFD001B642802D90320BDE8F88F45
:100DB00028688001F4D41DE00128F7D03068E2698A
:100DC00000F48001914213D1226A00F03F01914268
:100DD0000ED1616AC0F38812914209D1A26A00F46F
:100DE0004031914204D1E16A00F07060884201D044
:100DF0000120DBE70020D9E7083802400000474225
:100E0000800E4742007000400000FFFF0080BCF0F1
:100E100010B5401EB0F1807F01D3012010BD4FF00E
:100E2000E02460610F21601700F0BAF80020A06193
:100E300007202061002010BDFEE70000F0B587B05C
:100E400014216846FFF783FA33480024016841F013
:100E500004010160016801F004010591016841F09D
:100E600080010160016801F080010591016841F095
:100E700001010160016801F001010591016841F083
:100E800002010160016801F002010591016841F071
:100E900008010160016801F008010591016841F055
:100EA0004001016000681D4E00F0400044F28105E1
:100EB0000590002229463046FFF7A8FC184F002273
:100EC00040213846FFF7A2FC4FF4005000904FF449
:100ED0008810CDE9010469461248FFF753FB0095DD
:100EE0000125CDE90154694630460394FFF74AFBDA
:100EF00040200090CDE90154694638460394FFF73D
:100F000041FB8020CDE90004694638460294FFF792
:100F100039FB07B0F0BD0000303802400004024049
:100F20000018024000080240FEE7FEE770477047E5
:100F3000FFF778BC30B591B030216846FFF707FA6B
:100F400014210CA8FFF703FA0120039002241020BB
:100F500004900094002506940D20CDE90750C3208D
:100F6000CDE9090405200B906846FFF7B5FD08B1EF
:100F700072B6FEE70CA90F2081E831004FF4A050B3
:100F80000F904FF48050109003210CA8FFF7D6FC6F
:100F9000002801D072B6FEE711B030BD7047FEE701
:100FA0000907090E002804DB00F1E02080F8001496
:100FB000704700F00F0000F1E02080F8141D70472A
:100FC0001CB5FFF737FCFFF7B5FFFFF737FF00242D
:100FD000204900941E48019408600846FFF740FA33
:100FE00008B172B6FEE70220CDE900400022694652
:100FF0001848FFF712FA08B172B6FEE710226946E8
:101000001448FFF70AFA08B172B6FEE7002111484A
:10101000FFF777FA10210F48FFF773FA4FF448767D
:1010200041F21F354FF480573446002223461146C3
:101030000848FFF759FA2B1B002210210548FFF73B
:1010400053FA0120FFF78CFAA41CBC42EDDBEBE75E
:1010500000740040100000200000000000000000AC
:101060000102030406070809881000080000002098
:1010700010000000C00100089810000810000020B7
:1010800078060000DC0100080100000010000000EC
:08109000000000000024F40040
:040000050800018569
:00000001FF
