:020000040800F2
:10000000C806002099010008CB130008D51100088C
:10001000C913000887040008351400080000000018
:10002000000000000000000000000000CF130008E6
:100030008904000800000000CD130008D113000857
:10004000B3010008B3010008B3010008B3010008C0
:10005000B3010008B3010008B3010008B3010008B0
:10006000B3010008B3010008B3010008B3010008A0
:10007000B3010008B3010008B3010008B301000890
:10008000B3010008B3010008B3010008B301000880
:10009000B3010008B3010008B3010008B301000870
:1000A000B3010008B3010008B3010008B301000860
:1000B000B3010008B3010008B3010008B301000850
:1000C000B3010008B3010008B3010008B301000840
:1000D000B3010008B3010008B3010008B301000830
:1000E0008B040008B3010008B301000800F002F817
:1000F00000F043F80AA090E8000C82448344AAF17F
:100100000107DA4501D100F038F8AFF2090EBAE87C
:100110000F0013F0010F18BFFB1A43F0010318473B
:100120006814000088140000103A24BF78C878C111
:10013000FAD8520724BF30C830C144BF04680C60ED
:10014000704700000023002400250026103A28BF35
:1001500078C1FBD8520728BF30C148BF0B60704739
:100160001FB500F02DF904000020002101F0EAF98C
:10017000401C60601FBD10B510BD00F0FCF81146BA
:10018000FFF7EEFF01F068F900F02CF903B4FFF778
:10019000F2FF03BC00F070F90948804709480047A6
:1001A000FEE7FEE7FEE7FEE7FEE7FEE7FEE7FEE727
:1001B000FEE7FEE704480549054A064B7047000084
:1001C00033140008ED000008C8000020C806002015
:1001D000C8020020C802002070B5064600F034F8BE
:1001E0000468054630460A22002100F031F82C60F0
:1001F00070BD4FF0000200B5134694469646203974
:1002000022BFA0E80C50A0E80C50B1F12001BFF4CF
:10021000F7AF090728BFA0E80C5048BF0CC05DF835
:1002200004EB890028BF40F8042B08BF704748BF83
:1002300020F8022B11F0804F18BF00F8012B7047F7
:100240007047704770470000004870476400002006
:100250002DE9F04791460F4680460446002614F8E3
:10026000015B2DB100F030F80068405DC007F6D1A9
:100270002B2D02D02D2D18D0641E4A46394620461B
:1002800000F02AF827B13968A14201D1C7F80080EF
:100290004FF0020471050BD54042002803DDFFF743
:1002A000D3FF0460A007BDE8F08746F48066E4E76A
:1002B0000028F8DAFFF7C8FF04606FF00040F2E7AB
:1002C000004870476400002010B500F079F8001D68
:1002D00010BD00BF711200002DE9F05F8246154687
:1002E0008B4600270AF10104B9460078302801D076
:1002F0009DB113E014F8010B0127782803D058288A
:1003000001D045B10AE00DB1102D07D1002714F836
:10031000010B102502E0082500E00A250026B04662
:100320000EE005FB080005FB06F101271FFA80F827
:1003300001EB1046B6F5803F00D3B94614F8010B27
:10034000294600F041F80028EBDABBF1000F05D098
:100350000FB1641E00E05446CBF80040B9F1000F25
:1003600006D0FFF771FF02210160C81EBDE8F09FB3
:1003700048EA0640FAE77546FFF7A2FFAE460500D9
:100380006946534620F00700854618B020B5FFF7B0
:1003900011FFBDE820404FF000064FF000074FF07E
:1003A00000084FF0000B21F00701AC46ACE8C00993
:1003B000ACE8C009ACE8C009ACE8C0098D4670479C
:1003C00000487047840000203A2800D2303820F0DE
:1003D0002002412A01D3A2F13700884201D34FF015
:1003E000FF30704710B50446AFF300802046BDE8EB
:1003F0001040FFF7CBBE00004FF0013C50F8042B3B
:1004000051F8043B9A4221D1A2EB0C03934313EA27
:10041000CC1317D150F8042B51F8043B9A4215D154
:10042000A2EB0C03934313EACC130BD150F8042B2B
:1004300051F8043B9A4209D1A2EB0C03934313EA0F
:10044000CC13DBD04FF00000704700BFD01A01BAC8
:10045000B1FA81F101F0180122FA01F0CB40C1F1AB
:100460002001DBB2C0B2C01A2CFA01F3D11A9143B9
:1004700011EAC311E6D1704701491820ABBEFEE76F
:10048000260002007047FEE770474FF4005000F06E
:1004900015B8000070B5044600F01EF90546601C52
:1004A00002D004480078044400F016F9401BA04232
:1004B000FAD370BD0000002070470000044910B559
:1004C0000A68024202D00860FFF7F6FF10BD000084
:1004D000140401402DE9F84FDFF8B891002409F128
:1004E000040A0AF1040B23460F270BF1040EC9E09E
:1004F0000125A5402A40AA427DD1674ED1F804C00B
:10050000ACEB0608B44532D014DCBCF1030F3AD092
:1005100009DCBCF1000F2AD0BCF1010F1CD0BCF1EA
:10052000020F31D11DE0BCF1110F17D0BCF1120F39
:100530002AD119E0B8F5881F19D006DCB8F5803F3C
:1005400015D0B8F5801F1FD111E0B8F5001F0ED0EF
:10055000B8F5041F18D10AE0CB6815E0CB681B1D65
:1005600012E0CB6808330FE0CB680C330CE08B68EB
:100570002BB1012B4FF0080303D0456104E00423A5
:1005800002E0056100E00023FF2A01D8064601E0F1
:1005900000F104064FEA840501D9A5F12005D6F83B
:1005A000008007FA05FC28EA0C0803FA05F548EA7A
:1005B0000508C6F800804D68ED0062D5374DAE697C
:1005C00046F00106AE61AD6924F0030605F00105B1
:1005D0000095334D06EB050CDCF80850A607360FE6
:1005E00007FA06F825EA0805DFF8B880404503D188
:1005F0004FF0000817E044E0DFF8AC80404502D13E
:100600004FF001080FE0DFF8A480404502D14FF021
:10061000020808E0DFF89880404502D14FF0030857
:1006200001E04FF0040808FA06F848EA0508CCF89B
:1006300008804D68D9F80060ED034D4601D516439A
:1006400000E096432E604D68DAF80060AD03554631
:1006500001D5164300E096432E604D68DBF800603C
:10066000ED025D4601D5164300E096432E604D68CD
:10067000DEF80060AD02754601D5164300E09643F2
:100680002E60641C0D682A46E5407FF431AFBDE85A
:10069000F88F00000004014000001110001002401B
:1006A0000000014000080140000C01400010014022
:1006B000001401408068084000D001207047C268E3
:1006C00021EA02030A4043EA0241016170470AB18C
:1006D000016170470904FBE701488068704700002A
:1006E0000000002070B5040025D094F83D000025DE
:1006F00020B984F83C50204600F0B8F8242084F853
:100700003D002068016821F0010101602068016856
:1007100041F4004101602068016821F4004101605A
:1007200000F06EFB4D4A6168914201D84C4900E0EF
:100730004C49884201D2012070BD4B492368B0FB6F
:10074000F1F15E6826F03F060E435E6063689342F7
:1007500006D94FF4967359434FF47A73B1FBF3F112
:100760002368491C1E6A26F03F06314319626168FE
:10077000914210D84900401EB0FBF1F2521CC2F366
:100780000B02042A01D2042022E0B0FBF1F0401C4D
:10079000C0F30B001CE0A268F2B301EBC10303EB52
:1007A0000116431EB3FBF6F35B1C43F480431B05A9
:1007B00049D092B301EBC10202EB0111401EB0FB24
:1007C000F1F0401CC0F30B0040F4804040F40040C6
:1007D0002168CA694CF6FF739A431043C861D4E993
:1007E000071001432068026822F0C0021143016033
:1007F000D4E9030101432068826848F2FF339A4339
:1008000011438160D4E9050108432168CA6822F0D8
:10081000FF021043C86001E00EE016E020680168A6
:1008200041F0010101602564202084F83D0025632A
:1008300084F83E50002070BD01EB4106431EB3FB1F
:10084000F6F35B1CB3E70120C2E701EB4101401E58
:10085000B0FBF1F0401CC0F30B00B7E7A08601002D
:1008600080841E0000093D0040420F0010B586B094
:10087000002100910191029103910068134988427F
:1008800022D1134CA06940F00800A061A06969461C
:1008900000F0080004904FF4407000901220019086
:1008A000032003900B48FFF715FE0B48416841F009
:1008B000E06141F002014160E06940F40010E06154
:1008C000E06900F40010049006B010BD0054004030
:1008D00000100240000C0140000001402DE9F84FDB
:1008E0009A46154688460446FFF7F6FE064694F8F3
:1008F0003D0020287ED1B8F1000F32D08DB394F89E
:100900003C00012876D0012084F83C002068016872
:10091000C90703D1016841F0010101602068016845
:1009200021F400610160222084F83D00202784F832
:100930003E704FF00009C4F84090C4F824806585EB
:10094000608D20853E48E0622068016841F4806146
:10095000016053464A463B492046009600F052FC4F
:1009600010B10120BDE8F88F20684D4641698069CB
:10097000009024E032465146204600F077FCD0BB80
:1009800020680069616A0870606A401C6062218D9D
:10099000491E8AB22285618D491E618521684B6995
:1009A000DB435B070BD46AB109690170606A401CC4
:1009B0006062208D401E2085608D401E6085208DE8
:1009C0000028D7D1D0460BE0204600F004FC90B9B7
:1009D000FFF782FE811B41451ED8B8F1000F1BD0E6
:1009E00020684069C043C006EED420684169009188
:1009F000016801E021E01AE041F001010160206896
:100A0000016821F48061016084F83D7084F83E50F3
:100A100084F83C500020A5E7204640F8305F47733B
:100A20008573006940F02001216484F83C502068FF
:100A3000016821F48061016093E7022092E70000E1
:100A40000000FFFF020001002DE9F84F9A4616460C
:100A50000F460446FFF740FE054694F83D00202867
:100A60007DD1002F55D0002E53D094F83C000128A2
:100A700075D0012084F83C0020680168C90703D1C3
:100A8000016841F0010101602068016821F4006102
:100A90000160212084F83D004FF0200984F83E9049
:100AA0004FF00008C4F8408067626685608D20853D
:100AB0003A48E0622068016841F480610160384F83
:100AC0005346424639462046009500F09BFB00BB4A
:100AD000206846464169806900902069B0F5404F22
:100AE00037D15346002239462046009500F08AFB54
:100AF00078B920684169806900902AE02A46514609
:100B0000204600F0E6FB28B12068016821F48061EE
:100B100001602CE0606A216800780861606A401C0E
:100B20006062618D491E6185218D491E89B22185D2
:100B300022685369DB435B070BD469B1007810610D
:100B4000606A401C6062608D401E6085208D401E82
:100B50002085208D0028D1D15346002200E01AE0E4
:100B60004FF482312046009500F04CFB10B101207B
:100B7000BDE8F88F21686FF48060486120680168E3
:100B800021F48061016084F83D9084F83E6084F82F
:100B90003C600020ECE70220EAE700000000FFFFD5
:100BA00002000100024881680278114481607047A8
:100BB00000000020074810B5016841F010010160F5
:100BC000032000F075F8002000F006F800F024F88B
:100BD000002010BD0020024070B50D4D04464FF4BA
:100BE0007A712878B1FBF0F00A490968B1FBF0F09E
:100BF00000F0DCFA48B9102C07D200222146501E22
:100C000000F036F800206C6070BD012070BD00005F
:100C1000000000200C0000200C4808B5816941F05C
:100C200001018161816901F001010091C16941F017
:100C30008051C161C06900F0805000900448416853
:100C400021F0E06141F00071416008BD00100240F8
:100C500000000140002809DB00F01F020121914043
:100C60004009800000F1E020C0F80011704700004A
:100C7000F0B40E4B1B680C46C3F30223C3F1070507
:100C8000042D00D90425191D072901D2002300E0F5
:100C9000DB1E012606FA05F1491E214099409E40BF
:100CA000761E16403143F0BC00F0C5BB0CED00E0F1
:100CB000064900F0070208684FF6FF03184040EAB3
:100CC0000220034A10430860704700000CED00E06A
:100CD0000000FA052DE9F0470F46050061D0434EAC
:100CE000306800F00700B84209D2306820F00700F1
:100CF00038433060306800F00700B84251D12868AE
:100D00003B4C810712D5400703D5606840F4E06092
:100D100060602878000703D5606840F46050606028
:100D20006068A96820F0F000084360602878C00778
:100D300028D06868012810D02168022810D08907BF
:100D400000292EDA616821F0030101436160FFF799
:100D5000C3FC804641F288390DE021688903EFE742
:100D60008901EDE7FFF7B8FCA0EB0801494502D97E
:100D70000320BDE8F0876068696800F00C00B0EB04
:100D8000810FEFD1306800F00700B8420BD930680E
:100D900020F0070038433060306800F00700B842A8
:100DA00001D00120E5E72878400705D56068E968AB
:100DB00020F4E060084360602878000706D560688A
:100DC000296920F4605040EAC100606000F028F812
:100DD0006168084AC1F30311515CC84006490860C4
:100DE00006480068FFF7F8FE0020C2E70020024036
:100DF00000100240701500080C00002004000020C4
:100E00000448054900684968044AC1F30221515C5D
:100E1000C84070470C0000200010024080150008F8
:100E200012A185B00FC98DE80F0014A0144A006804
:100E300004905168134801F00C03042B10D0082BC8
:100E40000ED1C1F38343C9031DF803000AD55168CD
:100E500004AAC1F34041515C0A4A5043B0FBF1F08F
:100E600005B0704708494843FAE70000020304054B
:100E7000060708090A0B0C0D0E0F101001020000E6
:100E80000010024000127A0000093D002DE9F84FE1
:100E9000040070D02078C04DC00749D06868C0F306
:100EA0008100012807D06868C0F38100022809D1B9
:100EB0006868C00306D52868800339D560680028B3
:100EC000E7D035E06068B0F5803F0BD010B1B0F5E9
:100ED000A02F11D0286820F480302860286820F4E2
:100EE000802002E0286840F480302860606890B17B
:100EF000FFF7F2FB06460AE0286840F480202860ED
:100F0000F0E700BFFFF7E8FB801B642873D8286870
:100F10008003F7D50CE0FFF7DFFB064605E000BFD6
:100F2000FFF7DAFB801B6428F0D828688003F7D429
:100F300020789A4E80074FF001094FF0000839D50C
:100F4000686810F00C0F07D06868C0F381000228B1
:100F500009D16868C00306D42868800714D52069C1
:100F6000012808D110E02069B0B1C6F80090FFF761
:100F7000B3FB074605E00AE1FFF7AEFBC01B022802
:100F8000C4D828688007F7D52868616920F0F80080
:100F900040EAC10028600DE0C6F80080FFF79CFB26
:100FA000074604E0FFF798FBC01B022823D82868F7
:100FB0008007F7D4207800072CD57948A169D9B1EA
:100FC000C0F80090FFF788FB074604E0FFF784FBBA
:100FD000C01B02280FD8686A8007F7D571484FF404
:100FE000FA510068B0FBF1F0009000BF0098411E7C
:100FF0000091FAD20EE080E0C0F80080FFF76CFBB1
:10100000074604E0FFF768FBC01B022875D8686A32
:101010008007F7D42078400760D5E8690027C00032
:1010200008D4E86940F08050E861E869012700F0E1
:10103000805000905C480168C90513D4016883465C
:1010400041F480710160FFF747FB824606E000BF74
:10105000FFF742FBA0EB0A0064284ED8DBF8000043
:10106000C005F5D5E06801280AD008B1052813D0DD
:10107000286A20F001002862286A20F0040002E0BB
:10108000286A40F001002862E06841F2883B98B18C
:10109000FFF722FB82460BE0286A40F0040028623A
:1010A000EEE700BFFFF718FBA0EB0A0159455AD83D
:1010B000286A8007F6D50CE0FFF70EFB824605E0B4
:1010C000FFF70AFBA0EB0A0159454CD8286A8007B4
:1010D000F6D41FB1E86920F08050E861E06988B378
:1010E0006968C1F38101022944D00228C6F86080F2
:1010F00004D0FFF7F1FA044638E034E0FFF7ECFAE9
:10110000074604E0FFF7E8FAC01B02282BD828683E
:101110008001F7D4206AB0F5803F05D16868A168E6
:1011200020F4003008436860D4E908010843696886
:1011300021F4741108436860C6F86090FFF7CCFA98
:10114000044606E025E000BFFFF7C6FA001B0228B0
:1011500009D828688001F7D51BE000BFFFF7BCFA6B
:10116000001B022802D90320BDE8F88F28688001FF
:10117000F4D40EE00128F7D06868226A00F48031C8
:10118000914204D1616A00F47010884201D00120BC
:10119000EAE70020E8E700000010024000004242B9
:1011A000800442420C0000200070004010B5401E38
:1011B000B0F1807F01D3012010BD4FF0E0246061C9
:1011C0000F21601700F037F90020A061072020618F
:1011D000002010BDFEE701684A69D24352050FD4D2
:1011E0006FF480624A61002140F8301F2022427370
:1011F0008173026942F004020261017301207047A9
:10120000002070472DE9F0471E4690460D460446E3
:10121000C1F30747DDF8209008E0701C06D0FFF707
:101220005BFAA0EB0900B0420FD876B12068012F1D
:1012300018D0806925EA00000004000C14D00021B9
:101240004145EAD00020BDE8F087002044F8300F87
:1012500020216173A073216941F020012161207375
:101260000120F0E74069E5E70121E9E72DE9F041D8
:10127000002590460E460446202717E04069C043EB
:10128000C0060CD454F8301B6FF01000486144F8CD
:1012900010596777A577206A2062257717E0FFF756
:1012A0001BFAA0EB0800B04208D83EB120684169A3
:1012B000C9434906E2D40020BDE8F08144F8305F1C
:1012C0006773A573206940F0200020612573012019
:1012D000F2E770B516460D4604460DE02046FFF7CE
:1012E0007AFF08B1012070BD681C05D0FFF7F4F942
:1012F000801BA84207D835B120684069C04300066A
:10130000ECD4002070BD002044F8300F2021617320
:10131000A073216941F0200121612073E2E7000000
:1013200030B585B0002424480094019402940394BD
:10133000816941F010018161816901F0100104911E
:10134000816941F020018161816901F020010491EE
:10135000816941F004018161816901F00401049116
:10136000816941F0080181618069144D00F0080035
:101370000490012220212846FFF7A9F96814009063
:101380000F48CDE9010469460E48FFF7A3F8202075
:1013900000900120CDE9010402200390694628460F
:1013A000FFF798F8002211462820FFF761FC28205B
:1013B000FFF750FC05B030BD0010024000080140AE
:1013C0000000111000100140FEE7FEE77047704773
:1013D000FFF7E8BB30B58FB028216846FEF709FF5C
:1013E00014210AA8FEF705FF01210804CDE9001029
:1013F0000024029402250491CDE907504FF4E01037
:1014000009906846FFF742FD08B172B6FEE70F206B
:10141000CDE90A054FF48060CDE90C4002210AA80D
:101420000E94FFF757FC002801D072B6FEE70FB00C
:1014300030BD7047FEE70907090E002804DB00F104
:10144000E02080F80014704700F00F0000F1E02069
:1014500080F8141D7047000086B0FFF7ABFBFFF764
:10146000B9FFFFF75DFF2F482D49282201602E4963
:1014700041600021C0E902124FF48042C0E904211A
:101480008161C1610162FFF72DF908B172B6FEE713
:1014900026A1D1E90001CDE9000126A0D0E9001084
:1014A000CDE9021021A1D1E90001CDE904011D48D7
:1014B000FFF718F9214D50B9002420212846FFF7E5
:1014C000FEF83220FEF7E6FF641C142CF5DB2C46F8
:1014D0001B4E4FF400554FF496776423052269465E
:1014E0001048FFF7FBF90028F7D16846FEF774FEB5
:1014F000002801DD012200E0002220212046FFF724
:10150000E6F829463046FFF7D5F83B464FF005028E
:1015100008B102A900E004A90248FFF795FADCE748
:101520000054004010000020A08601003030303010
:10153000000000003131313100000000000801409E
:101540000010014010B500290AD00878002807D003
:1015500005487844FEF750FF002801D0002010BD58
:101560000248784410BD0000560000004E00000004
:101570000000000000000000010203040607080943
:101580000000000001020304B8160008000000205B
:101590001000000028010008C816000810000020F4
:1015A000B8060000440100081001000043000000DC
:1015B000F8FFFFFF00404040404040404040414174
:1015C0004141414040404040404040404040404018
:1015D00040404040400502020202020202020202B2
:1015E00002020202022020202020202020202002AF
:1015F000020202020202909090909090101010103F
:1016000010101010101010101010101010101010DA
:10161000020202020202888888888888080808086E
:10162000080808080808080808080808080808083A
:101630000202020240000000000000000000000062
:10164000000000000000000000000000000000009A
:10165000000000000000000000000000000000008A
:10166000000000000000000000000000000000007A
:10167000000000000000000000000000000000006A
:10168000000000000000000000000000000000005A
:10169000000000000000000000000000000000004A
:1016A000000000000000000000000000000000003A
:1016B0000000000000000000010000001000000019
:0816C000000000000024F4000A
:04000005080000ED02
:00000001FF
